:100000009DC00000C3C00000C1C00000BFC0000010
:10001000BDC00000BBC00000B9C00000B7C00000F8
:10002000B5C00000B3C00000B1C000000C94AB101C
:10003000ADC00000ABC00000A9C00000A7C0000018
:100040000C947809A3C000000C942D080C945F0850
:100050009DC000009BC0000099C0000097C0000038
:100060000C94810F93C000008D06900693069D06A8
:10007000A706AA06B406C10608000000BE922449DD
:10008000123EABAAAA2ABECDCCCC4C3E00000080CA
:10009000BEABAAAAAA3E00000000BF000000803F3D
:1000A0000000000000084178D3BB4387D1133D19FD
:1000B0000E3CC3BD4282AD2B3E68EC8276BED98F2A
:1000C000E1A93E4C80EFFFBE01C4FF7F3F0000006E
:1000D0000000000000080002010000030407000007
:1000E000000000000000010204081020408001020E
:1000F000040810200102040810200404040404046D
:1001000004040202020202020303030303030000C9
:100110000000230026002900000000002500280020
:100120002B0000000000240027002A003C02FE02F1
:1001300058044305ED05E3068D08E20E11241FBEA9
:10014000CFEFD8E0DEBFCDBF12E0A0E0B1E0E0E449
:10015000F3E302C005900D92A23EB107D9F725E066
:10016000A2EEB2E001C01D92A830B207E1F711E0A3
:10017000CCE3D1E004C02297FE010E941513CC32DB
:10018000D107C9F70E946C090C949E1939CFCF9200
:10019000DF92EF92FF920F931F93E82FF92F05C084
:1001A000015011092109310961F1908196239417B9
:1001B000B9F305C0015011092109310911F19081EC
:1001C00096239413F7CFC12CD12CE12CF12C0AC02B
:1001D0008FEFC81AD80AE80AF80A0C151D052E0573
:1001E0003F0579F080818623841791F36C2D7D2D56
:1001F0008E2D9F2D1F910F91FF90EF90DF90CF904C
:10020000089560E070E080E090E01F910F91FF9012
:10021000EF90DF90CF900895CF93DF93EC0189E0CA
:1002200090E0998388831B821A828BE090E00E9481
:1002300076099D838C83FC011286DF91CF9108950E
:10024000CF93DF93EC017F836E835987488761E00A
:1002500088810E94050B60E08881DF91CF910C942A
:100260003E0BCF93DF93EC0161E088810E943E0B4F
:1002700064E670E080E090E00E94E50960E088813B
:100280000E943E0B64E670E080E090E00E94E50989
:1002900061E088810E943E0B64E670E080E090E0BF
:1002A0000E94E50960E088810E943E0B64E670E0F0
:1002B00080E090E0DF91CF910C94E509CF93DF933C
:1002C000EC0161E088810E943E0B64E670E080E012
:1002D00090E00E94E50960E088810E943E0B66E99B
:1002E00070E080E090E00E94E5096DE071E08885B3
:1002F00099850E94D816888599856EE171E04196AE
:100300000E94D816CE01ADDF6AEF70E080E090E089
:10031000DF91CF910C94E509CF93DF93EC016FE26D
:1003200071E0888599850E94D8168885998560E452
:1003300071E041960E94D81661E088810E943E0BD0
:1003400062E370E080E090E00E94E50960E088816F
:100350000E943E0B62E370E080E090E00E94E509BD
:1003600061E088810E943E0B62E370E080E090E0F3
:100370000E94E50960E088810E943E0B66E970E01A
:1003800080E090E0DF91CF910C94E509AF92BF92AD
:10039000CF92DF92EF92FF920F931F93CF93DF9351
:1003A000EC0161E571E0888599850E94D8166A8123
:1003B0007B81882777FD8095982F1F921F921F922F
:1003C0002FEF2F93A12CB12C650114E6E12EF12C17
:1003D00000E010E020E030E0A90134D788810E94DD
:1003E0007F0A8A819B8101960F900F900F900F904A
:1003F000853691051CF49B838A8302C01B821A8276
:1004000020E030E080E090E0EC81FD81E80FF91F12
:100410004A815B81421753071CF040E3480F01C03B
:1004200040E240830196265F3F4F8A30910561F795
:100430008D818F938C818F9382E691E09F938F9330
:100440008885998541969F938F930E94DF160F9020
:100450000F900F900F900F900F906AE070E080E087
:1004600090E0DF91CF911F910F91FF90EF90DF907F
:10047000CF90BF90AF90A9C782EE92E0CDCEFC01A5
:1004800010821182128280E090E020E2DF01A80F4A
:10049000B91F97962C93979713962C9301968031BA
:1004A0009105A1F780E090E020E2DF01A80FB91FDD
:1004B000D8962C93D89754962C9301968031910519
:1004C000A1F717AADF01A85BBF4F1C92138A14A2E1
:1004D00008950895CF93DF93EC011A829C01AC013B
:1004E0004E5D5F4F61E080E090E0F901E80FF91F99
:1004F000A7A17381A71711F06A8304C00196803108
:10050000910599F78A81813041F02F5E3F4F241782
:10051000350749F7DF91CF91089585E393E00E9475
:10052000F50B80E090E0FE01E80FF91F27A123837F
:10053000019680319105B9F780E090E0FE01E80F67
:10054000F91F20AD248B019680319105B9F7BE01CA
:10055000695D7F4F85E393E061D641E060E085E32C
:1005600093E00E94FA0BBE01685C7F4F85E393E045
:1005700055D664E670E080E090E0DF91CF9125C72A
:10058000EF92FF920F931F93CF93DF93EC0185E3DC
:1005900093E00E94F50B7E0187E2E80EF11C67E60E
:1005A00071E0C7010E94D8168E01085C1F4F68E7F2
:1005B00071E0C8010E94D81669E871E088E793E00D
:1005C00031D6CE0187DF1882198268EE73E080E0B1
:1005D00090E0FBD66EE171E0C7010E94D8166EE193
:1005E00071E0C8010E94D81685E393E0DF91CF91B6
:1005F0001F910F91FF90EF900C94F50B8F92AF929B
:10060000CF92EF920F931F921F9283E08F9387E018
:10061000882E96E0A92E25E0C22E34E0E32E00E0DD
:1006200021E042E06FE385E393E00E94320D0F90FA
:100630000F900F908CEE92E00F91EF90CF90AF90D3
:100640008F901DCFFC0176A365A36EE971E088E76A
:1006500093E0E8D520E042E060E185E393E00E948A
:10066000B70D85E393E00E94DD0B64E670E080E067
:1006700090E0ABD685E393E00E94E50B64E670E082
:1006800080E090E0A2D685E393E00E94DD0B64E673
:1006900070E080E090E099D685E393E00E94E50B5E
:1006A00064E670E080E090E090D685E393E00C94FF
:1006B000DD0B0F931F93CF93DF93EC018A81813081
:1006C00019F4CE0107DF1A8288E793E084D3892BDF
:1006D000C1F164E670E080E090E077D600E211E0DE
:1006E00088E793E078D3181619065CF588E793E05D
:1006F0008BD399819031A4F019829881913011F0B7
:1007000018830EC020E030E0FE01E20FF31F90AD31
:1007100097A300AF2F5F3F4F20313105A9F7F0CFEE
:100720009981288131E12303F0011124EC0FFD1F91
:10073000E90FF11D97FDFA9587A39F5F99831A83AF
:10074000CFCFDF91CF911F910F910895FC0173835B
:100750006283558344830895AF92BF92CF92DF9214
:10076000EF92FF920F931F93CF93DF93EC01688179
:10077000798186E593E00E94FD118881A3D6BC01B2
:10078000882777FD8095982F1F921F921F9224EB48
:100790002F93A12CB12C6501EE24EA9413E0F12EE5
:1007A00000E010E020E030E0A9014CD57093550343
:1007B000609354030F900F900F900F90DF91CF91A3
:1007C0001F910F91FF90EF90DF90CF90BF90AF906F
:1007D0000895CF93DF93EC0165EB71E08C819D81EF
:1007E0000E94D8168C819D8166EC71E041960E9432
:1007F000D816609154037091550386E593E00E94EA
:1008000043126FE070E080E090E0DF91CF91DDC5B2
:10081000CF93DF93EC0167ED71E08C819D810E94A5
:10082000D8168C819D8168EE71E041960E94D816A1
:100830001092550310925403609154037091550324
:10084000653B71059CF486E593E00E9443126FE0DE
:1008500070E080E090E0B9D5809154039091550309
:1008600001969093550380935403E6CF84EB90E078
:1008700090935503809354036091540370915503F2
:1008800077FD0FC086E593E00E9443126FE070E0B1
:1008900080E090E09AD580915403909155030197A0
:1008A000E7CFDF91CF91089586E593E00C94021293
:1008B00086E593E00E94651188E090E090934F03F5
:1008C00080934E030895FC01758764875787468798
:1008D00060E086819AC6CF92DF92EF92FF92FC0190
:1008E00060817181882777FD8095982F0E9446143A
:1008F0009B01AC0160E070E080E894E40E94AB13DF
:1009000020E030E040E85FE30E9446139B01AC0129
:1009100060E070E48CE196E40E94AB130E94D7146F
:100920006B017C0129E537E44CEB53E30E9417157A
:10093000A70196010E94171523E73FE745E759E312
:100940000E944713A70196010E9417152BEE3FEF57
:1009500043E95AE30E9447139B01AC0160E070E059
:1009600080E89FE30E94AB13FF90EF90DF90CF9061
:100970000895B1DF23E333E948E853E40C944613C8
:10098000F8DF20E030E040E151E40E94171520E05C
:1009900030E040EA50E40E94AB1320E030E040E059
:1009A00052E40C9447138F929F92AF92BF92CF92D2
:1009B000DF92EF92FF920F931F93CF93DF93EC019F
:1009C0008E8191D69D838C83019719F48A817AD583
:1009D00002C08FEF9FEF99838883CE01D1DF0E9401
:1009E000131408EE13E0CB01B8010E94C2129F93CA
:1009F0008F9389EF91E09F938F938F858F938E854F
:100A00008F930E94DF16CE01B4DF4B015C01CE0153
:100A100062DF6B017C01C501B4010E941314CB019C
:100A2000B8010E94C2129F938F93C701B6010E9422
:100A30001314CB01B8010E94C2129F938F9389E0D7
:100A400092E09F938F938E859F8541969F938F937E
:100A50000E94DF168DB79EB70E960FB6F8949EBF14
:100A60000FBE8DBF64E670E080E090E0DF91CF9133
:100A70001F910F91FF90EF90DF90CF90BF90AF90BC
:100A80009F908F90A2C48EE090E090935C0380933F
:100A90005B038AE090E09093600380935F03089586
:100AA000CF93DF93EC017D836C835F834E8361E0A2
:100AB0008881ABD560E08A81DF91CF91A6C5AF92E6
:100AC000BF92CF92DF92EF92FF920F931F93CF933B
:100AD000DF93EC0160E08881D1D585E090E0ACD473
:100AE00061E08881CBD58AE090E0A6D460E088817F
:100AF000C5D560E08A8189D520E432E44FE050E03A
:100B000061E08A8118D6162F072FF82EE92E22E0F1
:100B100030E040E050E00E94F712CA01B9010E94A3
:100B200046142DEC3CEC48EE51E40E94AB130E94BD
:100B30001314D62EC72EB82EA92E6CE172E08E812A
:100B40009F810E94D8168D2D9C2D28EE33E0B9018F
:100B50000E94C2129F938F93812F902FB9010E9400
:100B6000C2129F938F932DE232E03F932F932E81F9
:100B70003F812F5E3F4F3F932F930E94DF16AF922E
:100B8000BF92CF92DF92EF92FF920F931F938EE36B
:100B900092E09F938F938D818F938C818F930E948E
:100BA000DF166C817D8188E793E03CD38DB79EB7DB
:100BB00044960FB6F8949EBF0FBE8DBF6AEF70E0EB
:100BC00080E090E0DF91CF911F910F91FF90EF9027
:100BD000DF90CF90BF90AF90F8C38DE090E09093FE
:100BE0006A03809369038CE090E090936C03809398
:100BF0006B03089526E040E855E260E070E088E786
:100C000093E0C9D162E572E088E793E00BD360E03E
:100C100080910A01FAD460917103709172038CEE95
:100C200092E010DD609171037091720343E153E033
:100C300082EE92E005DB609171037091720343E1F3
:100C400053E089E693E02CDF6091710370917203A9
:100C500043E153E089E593E036DE609171037091E2
:100C6000720343E153E08EE493E070CD80910A017A
:100C70003AD59093770380937603019709F03CC0AF
:100C80008091760390917703019771F480910A0126
:100C90002AD5909377038093760382EE92E03CDB33
:100CA0008CEE92E017DCECCF809174039091750389
:100CB000019690937503809374039F938F938FE5B0
:100CC00092E09F938F93809172038F938091710331
:100CD0008F930E94DF16609171037091720388E711
:100CE00093E0A0D281E0809373030F900F900F9058
:100CF0000F900F900F9002C0109273038CEE92E051
:100D0000E9DBE0917403F0917503E830F10508F038
:100D10003FC0EC5CFF4F0C94131382EE92E0CECAFE
:100D200082EE92E033CB80917303813019F48CEE24
:100D300092E026DC8CEE92E0BCCC80917303813093
:100D400019F48CEE92E0C5DB89E693E0B8CE89E534
:100D500093E029CE80917303813019F48EE493E0FF
:100D6000FBDC8EE493E035CD80917303813031F468
:100D70008EE493E099DD8EE493E0EEDC8EE493E084
:100D800047CD809173038130E9F48EE493E08CCDFC
:100D900066E772E083E193E00E94D81665E872E0AE
:100DA00084E293E00E94D81665E872E088E793E059
:100DB00039D264EF71E080E090E007D310927503C0
:100DC00010927403089580E290E090D290937203A1
:100DD000809371030895FC01818D228D90E0805CE9
:100DE0009F4F821B91098F7399270895FC01918D64
:100DF000828D981731F0828DE80FF11D858D90E07E
:100E000008958FEF9FEF0895FC01918D828D9817C3
:100E100061F0828DDF01A80FB11D5D968C91928DDE
:100E20009F5F9F73928F90E008958FEF9FEF0895DB
:100E300084E898E0892B41F080E090E0892B21F054
:100E400063D181110C9400000895FC01848DDF01B1
:100E5000A80FB11DA35ABF4F2C91848D90E001962D
:100E60008F739927848FA689B7892C93A089B1891C
:100E70008C9180648C93938D848D981306C0028826
:100E8000F389E02D80818F7D80830895CF93DF9358
:100E9000EC01888D8823C1F0EA89FB89808185FD7A
:100EA00005C0A889B9898C9186FD0EC00FB607FCD4
:100EB000F5CF808185FFF2CFA889B9898C9185FF14
:100EC000EDCFCE01C2DFE8CFDF91CF910895CF9271
:100ED000DF92FF920F931F93CF93DF931F92CDB7B3
:100EE000DEB76C0181E0D60158968C9358975B96DB
:100EF0009C915B975C968C915C97981307C0509679
:100F0000ED91FC915197808185FD2DC0F601038DF7
:100F100010E00F5F1F4F0F731127F02EF601848D25
:100F2000F81210C00FB607FCF9CFD6015096ED911C
:100F3000FC915197808185FFF1CFC601698385DFE0
:100F40006981ECCF838DE80FF11DE35AFF4F608379
:100F5000D6015B960C935B975296ED91FC9153975B
:100F6000808180620CC0D6015696ED91FC91579716
:100F700060835096ED91FC915197808180648083CD
:100F800081E090E00F90DF91CF911F910F91FF9042
:100F9000DF90CF900895BF92CF92DF92EF92FF92B1
:100FA000CF93DF93EC016A017B01B22EE889F989C6
:100FB00082E08083411581EE580761057105A1F03B
:100FC00060E079E08DE390E0A70196010E94D512E0
:100FD0002150310941095109569547953795279573
:100FE000211580E1380798F0E889F989108260E8D6
:100FF00074E88EE190E0A70196010E94D51221507D
:101000003109410951095695479537952795EC8542
:10101000FD853083EE85FF852083188EEC89FD8960
:10102000B082EA89FB89808180618083EA89FB89BB
:10103000808188608083EA89FB89808180688083E1
:10104000EA89FB8980818F7D8083DF91CF91FF903A
:10105000EF90DF90CF90BF9008951F920F920FB640
:101060000F9211242F938F939F93EF93FF93E0910F
:101070008803F09189038081E0918E03F0918F03C2
:1010800082FD12C09081809191038F5F8F732091B8
:101090009203821751F0E0919103F0E0E858FC4F81
:1010A000958F8093910301C08081FF91EF919F9173
:1010B0008F912F910F900FBE0F901F9018951F9238
:1010C0000F920FB60F9211242F933F934F935F937C
:1010D0006F937F938F939F93AF93BF93EF93FF9300
:1010E00088E793E0B2DEFF91EF91BF91AF919F91BE
:1010F0008F917F916F915F914F913F912F910F90C1
:101100000FBE0F901F90189588E793E064DE21E0F2
:10111000892B09F420E0822F089510927B0310920E
:101120007A0388EE93E0A0E0B0E080937C03909394
:101130007D03A0937E03B0937F0384E992E09093B4
:1011400079038093780385EC90E0909385038093F6
:10115000840384EC90E0909387038093860380EC73
:1011600090E0909389038093880381EC90E09093C2
:101170008B0380938A0382EC90E090938D0380939D
:101180008C0386EC90E090938F0380938E031092F3
:101190009103109292031092930310929403089576
:1011A000CF92DF92EF92FF920F931F93CF93DF9333
:1011B0007C016A01EB0100E010E00C151D0571F0E7
:1011C0006991D701ED91FC910190F081E02DC7016B
:1011D0000995892B19F00F5F1F4FEFCFC801DF91E1
:1011E000CF911F910F91FF90EF90DF90CF900895D6
:1011F0006115710581F0DB010D900020E9F7AD016B
:1012000041505109461B570BDC01ED91FC910280C6
:10121000F381E02D099480E090E00895E9CF60EA41
:1012200072E0E6CF0F931F93CF93DF93EC01E0DFE3
:101230008C01CE01F4DF800F911FDF91CF911F91C0
:101240000F9108954F925F926F927F92AF92BF92EB
:10125000CF92DF92EF92FF920F931F93CF93DF9382
:10126000CDB7DEB729013A01621B730B840B950BD6
:1012700029893A894B895C892A193B094C095D09FE
:10128000298B3A8B4B8B5C8B9B01AC0169897A89EA
:101290008B899C890E94A712E418F5080609170992
:1012A000A80197010E94F7122A0D3B1D4C1D5D1DE0
:1012B000CA01B901DF91CF911F910F91FF90EF907B
:1012C000DF90CF90BF90AF907F906F905F904F90E6
:1012D00008950E94D4160895BAD0FDDF8BDCC8E1D2
:1012E000D7E0C4DC2097E9F3A3DDFBCF0C94AD1568
:1012F0001F920F920FB60F9211242F933F938F934B
:101300009F93AF93BF938091160490911704A0917F
:101310001804B09119043091150423E0230F2D37E0
:1013200020F40196A11DB11D05C026E8230F0296E9
:10133000A11DB11D209315048093160490931704EA
:10134000A0931804B093190480911A0490911B047F
:10135000A0911C04B0911D040196A11DB11D8093A4
:101360001A0490931B04A0931C04B0931D04BF9116
:10137000AF919F918F913F912F910F900FBE0F9042
:101380001F9018953FB7F89480911A0490911B0410
:10139000A0911C04B0911D0426B5A89B05C02F3F49
:1013A00019F00196A11DB11D3FBF6627782F892F27
:1013B0009A2F620F711D811D911D42E0660F771FEC
:1013C000881F991F4A95D1F708958F929F92AF92E7
:1013D000BF92CF92DF92EF92FF926B017C01D2DF3E
:1013E0004B015C01C114D104E104F104E1F0CFD15F
:1013F000C9DF681979098A099B09683E734081052C
:10140000910580F321E0C21AD108E108F10888EEC5
:10141000880E83E0981EA11CB11CC114D104E10404
:10142000F10431F7DFCFFF90EF90DF90CF90BF90C6
:10143000AF909F908F9008958230910538F0880F7B
:10144000991F880F991F05970197F1F708957894D0
:1014500084B5826084BD84B5816084BD85B58260B9
:1014600085BD85B5816085BDEEE6F0E08081816057
:101470008083E1E8F0E01082808182608083808157
:1014800081608083E0E8F0E0808181608083E1EB2F
:10149000F0E0808184608083E0EBF0E08081816017
:1014A0008083EAE7F0E080818460808380818260CD
:1014B00080838081816080838081806880831092B6
:1014C000C10008958E3008F08E50877020910C0175
:1014D00090E4299F90011124822B80937C008091BD
:1014E0007A00806480937A0080917A0086FDFCCF38
:1014F000809178002091790090E0922B08951F93BD
:10150000CF93DF93182FEB0161E07FD0209711F488
:1015100060E004C0CF3FD10531F461E0812FDF915D
:10152000CF911F91ABC0E12FF0E0EE52FF4FE4915D
:10153000E330F9F048F4E130B9F0E230A1F584B5D8
:10154000806284BDC8BD34C0E730E9F0E83019F1ED
:10155000E43049F580918000806280938000D093D0
:101560008B00C0938A0024C084B5806884BDC7BD49
:101570001FC080918000806880938000D093890094
:10158000C093880015C08091B00080688093B0003F
:10159000C093B3000DC08091B00080628093B00012
:1015A000C093B40005C0C038D1050CF0B6CFB0CFA1
:1015B000DF91CF911F910895833081F028F481301D
:1015C00099F08230A1F008958730A9F08830B9F001
:1015D0008430D1F4809180008F7D03C080918000A1
:1015E0008F7780938000089584B58F7702C084B58B
:1015F0008F7D84BD08958091B0008F7703C0809166
:10160000B0008F7D8093B0000895CF93DF9390E07A
:10161000FC01EA51FF4F2491FC01E650FF4F8491F9
:10162000882349F190E0880F991FFC01EE5DFE4F81
:10163000A591B491885E9E4FFC01C591D4919FB74E
:10164000611108C0F8948C91209582238C93888135
:1016500082230AC0623051F4F8948C91322F309575
:1016600083238C938881822B888304C0F8948C9187
:10167000822B8C939FBFDF91CF9108950F931F937F
:10168000CF93DF931F92CDB7DEB7282F30E0F9015B
:10169000EE52FF4F8491F901EA51FF4F1491F90185
:1016A000E650FF4F04910023C1F0882319F06983AD
:1016B00083DF6981E02FF0E0EE0FFF1FE85EFE4F51
:1016C000A591B4919FB7F8948C91611103C01095C6
:1016D000812301C0812B8C939FBF0F90DF91CF910D
:1016E0001F910F910895CF93DF93282F30E0F901D8
:1016F000EE52FF4F8491F901EA51FF4FD491F90165
:10170000E650FF4FC491CC2389F0811155DFEC2FB7
:10171000F0E0EE0FFF1FE25FFE4FA591B4912C9118
:101720002D2381E090E021F480E002C080E090E091
:10173000DF91CF9108950F931F93762F90E0FC01D6
:10174000EA51FF4F6491FC01E650FF4FE4917111A3
:10175000762FF0E0EE0FFF1FE25FFE4F8591949130
:1017600089019A013F70472F0E94C70061157105DA
:101770008105910531F06F5F7F4F8F4F9F4F9F70B5
:1017800003C060E070E0CB011F910F9108950895B0
:1017900008950895DC01ED91FC910284F385E02D1C
:1017A00041E0099581E090E00895FC0113821282E6
:1017B00025EB32E0318320830895DC01ED91FC912B
:1017C0000084F185E02D6FEF0994DC01ED91FC912F
:1017D0000084F185E02D60E00994DC01ED91FC913D
:1017E0000284F385E02D40E0099461E0F6DF80EDAE
:1017F00097E022CECF93DF93CDB7DEB728970FB611
:10180000F894DEBF0FBECDBF1D8220E42E8334E1ED
:101810003F8334E5388719822A8320E12B8320E532
:101820002C83FC012781421710F04FEF420FFC017F
:10183000308550E0FE01E40FF51F303121F42430F3
:1018400011F4218101C02581260F2068622F28967E
:101850000FB6F894DEBF0FBECDBFDF91CF91BDCFE5
:10186000FC016581262F246025836C60B6CFCF9361
:10187000DF93EC01423018F08C8188608C834F83B9
:101880006887222329F0413019F48C8184608C838D
:1018900064E670E080E090E098DD6C8164FD2EC02D
:1018A000E881F9810284F385E02D42E063E0CE0116
:1018B000099584E991E1C0DDE881F9810284F3852D
:1018C000E02D42E063E0CE01099586E990E0B4DDC9
:1018D000E881F9810284F385E02D42E063E0CE01E6
:1018E000099586E990E0A8DDE881F9810284F38515
:1018F000E02D42E062E0CE01099511C06062CE01A8
:101900006CDF84E991E198DD6C816062CE0165DF76
:1019100086E990E091DD6C816062CE015EDF86E950
:1019200090E08ADD6C816062CE0157DF8CE390E04D
:1019300083DD84E08D83CE0193DFCE0156DF82E02C
:101940008E8366E0CE0149DFCE01DF91CF9135CFA6
:1019500021E001C0220F6A95EAF7DC011C962C9366
:101960001C971A965C934E931997ED91FC91008405
:10197000F185E02D60E00994FC012485222391F09B
:1019800081859285009719F4611105C006C0019701
:1019900021F4611102C0258701C015866585CF013C
:1019A0000E9631C108950F931F93CF93DF93EC01EF
:1019B0008C01025F1F4F6B85C8010FD1019751F455
:1019C00061E0C801F4D01C8260E0C8011CD181E054
:1019D00090E002C080E090E0DF91CF911F910F91E5
:1019E00008958F92AF92CF92EF920F93CF93DF93A0
:1019F000CDB7DEB7FC016387148615861286118683
:101A000081E0982F01C0990F4A95EAF7928B982FA1
:101A100001C0990F2A95EAF7938B982F01C0990F6F
:101A20000A95EAF7948B982F01C0990FEA94EAF788
:101A3000958B982F01C0990FCA94EAF7968B982F2F
:101A400001C0990FAA94EAF7978B01C0880F8A9476
:101A5000EAF7808FDF91CF910F91EF90CF90AF9009
:101A60008F9008954F925F926F927F928F92AF9274
:101A7000CF92EF920F931F93CF93DF9300D01F92DB
:101A8000CDB7DEB73C011A894B885C882B834A832B
:101A900069838BDE85EC92E0F30191838083C3013F
:101AA0000E967ED02B814A816981C3019ADFA20103
:101AB000612FC3010F900F900F90DF91CF911F9175
:101AC0000F91EF90CF90AF908F907F906F905F903D
:101AD0004F903ECFFF920F931F93CF93DF93EC0174
:101AE000F62E8C01025F1F4F6A896F29C8018BD0C7
:101AF0006A8960956F21C801DF91CF911F910F9185
:101B0000FF9081C020E030E050E060FF05C0FC01A4
:101B1000E20FF31F7589572B66952F5F3F4F2430D7
:101B2000310599F7413011F4FC014489FC016585C8
:101B3000652B642BCFCF0F931F93CF93DF93EC01D3
:101B4000142F062F0F70423011F440E009C070E0EE
:101B500084E0759567958A95E1F7CE01D3DF412F33
:101B6000602FCE01DF91CF911F910F91CBCF0F93BB
:101B70001F93CF93DF9300D01F92CDB7DEB78C01B8
:101B80002B834A8369830FDF2B814A816981C801D6
:101B90000F900F900F90DF91CF911F910F9167CE13
:101BA000FC0112828FEF8183108213820895FC0161
:101BB0008381882331F0611103C08FEF8183089501
:101BC000118208958EE194E0DFD08EE194E0F8D0A8
:101BD00091E0811190E0892F0895CF93DF93EC017C
:101BE0006A838EE194E0C7D06A81CE01EBDF8B83FC
:101BF000882321F08EE194E031D088838B8190E0BE
:101C0000DF91CF910895CF93DF93EC018B818823EF
:101C100091F089818095862388836A818EE194E0A2
:101C2000B3D068818EE194E068D08EE194E0C8D0B2
:101C3000282F30E002C020E030E081E090E0232B4C
:101C400011F080E090E0DF91CF91089580914E04F3
:101C500090E020914F04821B9109089520914F0438
:101C600080914E04281750F4E22FF0E0E05BFB4F28
:101C7000808190E02F5F20934F0408958FEF9FEFB6
:101C80000895E0914F0480914E04E81730F4F0E09D
:101C9000E05BFB4F808190E008958FEF9FEF089508
:101CA0000895CF92DF92EF92FF920F931F93CF93FD
:101CB000DF937C01CB018A0120912A04222389F041
:101CC000EB016B01C40ED51ECC15DD0561F06991E9
:101CD000D701ED91FC910190F081E02DC7010995AC
:101CE000F3CF642FE5D0C801DF91CF911F910F9101
:101CF000FF90EF90DF90CF900895CF93DF931F92E6
:101D0000CDB7DEB7698320912A042223D1F0209138
:101D10002B04203240F021E030E0FC0133832283A9
:101D200080E090E014C080912C04E82FF0E0E35DA7
:101D3000FB4F998190838F5F80932C0480932B04B9
:101D400004C061E0CE010196B3D081E090E00F9035
:101D5000DF91CF910895FC011382128248EE53E087
:101D600060E070E0448355836683778385ED92E07D
:101D700091838083089510924F0410924E04109224
:101D80002C0410922B0421C081E080932A046093DC
:101D90004D0410922C0410922B0408950F93062FDB
:101DA00021E040912B046DE274E080914D0429D034
:101DB00010922C0410922B0410922A040F91089573
:101DC00061E0ECCF8EE194E0C6CF1092DD0481E0BB
:101DD0008093DB041092DA0461E082E14FDC61E081
:101DE00083E14CDCE9EBF0E080818E7F80838081B1
:101DF0008D7F808388E48093B80085E48093BC0065
:101E000008950F93413208F04AC09091DD0491117A
:101E1000FCCF92E09093DD040093DB049FEF90935E
:101E200070041092B5044093B404FB0166EB74E0B7
:101E3000DB019A2F961B941718F491919D93F9CF7B
:101E40001092DC049091DC04880F892B8093DC04D1
:101E50008091DA04813061F41092DA048091DC041C
:101E60008093BB008091BC0083FDF8CF85EC01C05E
:101E700085EE8093BC00222321F08091DD04823026
:101E8000E1F3809170048F3F61F0809170048032A3
:101E900051F080917004803341F483E007C081E009
:101EA00005C080E003C082E001C084E00F91089586
:101EB000613298F42091DD04243089F46093920417
:101EC000FC0184E994E0DC012A2F281B261718F472
:101ED00021912D93F9CF80E0089581E0089582E06B
:101EE000089585ED8093BC008091BC0084FDFCCFFB
:101EF0001092DD04089585EC8093BC001092DD04FF
:101F000008951F920F920FB60F9211242F933F93B3
:101F10004F935F936F937F938F939F93AF93BF93F1
:101F2000EF93FF938091B900887F803609F49DC0BC
:101F300070F5883209F45CC090F4803109F455C022
:101F400038F4882309F4F3C0883009F44EC0F2C095
:101F5000883109F44DC0803209F45EC0EBC0803492
:101F600009F469C050F4803309F456C0883309F08D
:101F7000E1C080937004BFDFDDC0803509F44FC03D
:101F8000883509F45DC0883409F0D4C0D2C08839DE
:101F900009F4C3C0A8F4883709F467C038F4883658
:101FA00009F463C0803709F460C0C4C0883809F4FC
:101FB000B4C0803909F45FC0803809F0BBC05BC091
:101FC000803B09F482C038F4803A09F466C0883A4C
:101FD00009F47BC0AFC0803C09F4A3C0883C09F47D
:101FE000A0C0883B09F486C0A5C08091DC0410C065
:101FF0009091B5048091B404981770F5E091B50400
:1020000081E08E0F8093B504F0E0EA54FB4F8081AD
:102010008093BB0085EC82C0809370048AC0E091FD
:10202000B50481E08E0F8093B5048091BB00F0E091
:10203000EA54FB4F80839091B5048091B4046AC048
:10204000E091B50481E08E0F8093B5048091BB00D0
:10205000F0E0EA54FB4F80838091DB04811169C07A
:1020600081E08093DA0484EA5DC083E08093DD043C
:1020700010927104CFCF80917104803208F04DC06E
:10208000E091710481E08E0F809371048091BB0018
:10209000F0E0EE58FB4F8083BDCF2DDF80917104BF
:1020A000803230F4E0917104F0E0EE58FB4F108282
:1020B0006091710470E0E091D604F091D70482E75A
:1020C00094E009951092710435C084E08093DD049A
:1020D0001092930410929204E091D804F091D904E4
:1020E000099580919204811105C081E0809392044A
:1020F00010929404E091930481E08E0F80939304F6
:10210000F0E0EC56FB4F80818093BB0090919304EC
:1021100080919204981708F47DCF85E88093BC00E5
:1021200009C085EC8093BC001092DD0403C01092BE
:102130007004D7DEFF91EF91BF91AF919F918F9186
:102140007F916F915F914F913F912F910F900FBEB3
:102150000F901F9018951F920F920FB60F92112497
:102160002F933F934F935F936F937F938F939F939F
:10217000AF93BF93EF93FF938091DF0487FF05C078
:1021800010928500109284001AC02091DF0433273A
:1021900027FD30958091DE0490E0281739077CF404
:1021A0008091DF04992787FD9095FC01EE0FFF1FBA
:1021B000E80FF91FE052FB4F808186FD15C080912A
:1021C000DF048F5F8093DF042091DF04332727FD36
:1021D00030958091DE0490E028173907B4F480919F
:1021E000DF048C3054F111C08091DF04992787FD02
:1021F0009095FC01EE0FFF1FE80FF91FE052FB4F17
:10220000808160E08F733ADADACF80918400909118
:102210008500049680349C4918F480E49CE905C04C
:10222000809184009091850004969093890080931A
:1022300088008FEF8093DF0437C0209184003091B5
:1022400085008091DF04992787FD9095FC01EE0FB2
:10225000FF1FE80FF91FE052FB4F81819281820F2F
:10226000931F90938900809388008091DF049927C1
:1022700087FD9095FC01EE0FFF1FE80FF91FE0525C
:10228000FB4F808186FF10C08091DF04992787FD76
:102290009095FC01EE0FFF1FE80FF91FE052FB4F76
:1022A000808161E08F73EAD9FF91EF91BF91AF9187
:1022B0009F918F917F916F915F914F913F912F915E
:1022C0000F900FBE0F901F9018952091DE042C30B8
:1022D000A0F431E0320F3093DE04FC012083822F22
:1022E00090E0FC01EE0FFF1FE80FF91FE052FB4FDB
:1022F00088EB9BE09283818308952FEFFC0120837C
:102300000895DF92EF92FF920F931F93CF93DF9385
:10231000EC01D62E7A01890188818C3008F064C0E6
:1023200061E08D2D72D98881A82FB0E0FD01EE0FFC
:10233000FF1FEA0FFB1FE052FB4F2D2D2F739081E3
:10234000907C922B908360E272E06E197F0977FF98
:1023500002C06D5F7F4F7595679575956795698329
:1023600040E659E0401B510B57FF02C04D5F5F4FE5
:1023700055954795559547954A836CE0F7D09CE075
:10238000899FB001112420E030E0A901460F571FBA
:10239000FA01EE0FFF1FE40FF51FE052FB4F908193
:1023A00096FD16C02F5F3F4F2C30310571F781111C
:1023B0000FC01092800082E080938100109285000F
:1023C00010928400B19A80916F00826080936F00B8
:1023D000888190E0FC01EE0FFF1FE80FF91FE0522B
:1023E000FB4F8081806480838881DF91CF911F9132
:1023F0000F91FF90EF90DF90089520E639E040E2E2
:1024000052E07FCFFC01808190E0FC01EE0FFF1FC6
:10241000E80FF91FE052FB4F80818F7B8083089586
:10242000FC0180818C3070F5918128E830E0291B17
:10243000310997FD3395220F331F220F331F621787
:1024400073077CF0928128E532E0291B310997FD62
:102450003395220F331F220F331F621773070CF4BB
:102460009B0122503109220F331F4FB7F89490E09F
:10247000FC01EE0FFF1FE80FF91FE052FB4F328304
:1024800021834FBF08954F925F926F927F92AF92D8
:10249000BF92CF92DF92EF92FF920F931F93CF9351
:1024A000DF93EC01603282E078070CF040C077FDEA
:1024B00006C0653B71052CF064EB70E002C060E083
:1024C00070E0898128E830E0281B310987FD3395C9
:1024D000220F331F220F331F5901CC24B7FCC094A5
:1024E000DC2C882777FD8095982F2A8148E552E0DB
:1024F000421B510927FD5395440F551F440F551F8B
:102500002A01662457FC6094762C7F926F925F922A
:102510004F9214EBE12EF12C00E010E020E030E0CF
:10252000A9010E9422090F900F900F900F90CE01E9
:10253000DF91CF911F910F91FF90EF90DF90CF909F
:10254000BF90AF907F906F905F904F9069CFDB010D
:102550008F939F936ED0BF91AF91A29F800D911DDD
:10256000A39F900DB29F900D11240895991B79E0BF
:1025700004C0991F961708F0961B881F7A95C9F713
:102580008095089597FB072E16F4009406D077FDEA
:1025900008D059D007FC05D03EF4909581959F4F07
:1025A0000895709561957F4F0895A1E21A2EAA1B98
:1025B000BB1BFD010DC0AA1FBB1FEE1FFF1FA217F3
:1025C000B307E407F50720F0A21BB30BE40BF50BF0
:1025D000661F771F881F991F1A9469F76095709579
:1025E000809590959B01AC01BD01CF010895052E0A
:1025F00097FB16F400940FD057FD05D0D6DF07FCEB
:1026000002D046F408C050954095309521953F4F33
:102610004F4F5F4F089590958095709561957F4FCE
:102620008F4F9F4F0895EE0FFF1F0590F491E02DFF
:1026300009941DD0A59F900DB49F900DA49F800D6F
:10264000911D11240895AA1BBB1B51E107C0AA1FAD
:10265000BB1FA617B70710F0A61BB70B881F991F43
:102660005A95A9F780959095BC01CD010895A29F38
:10267000B001B39FC001A39F700D811D1124911D56
:10268000B29F700D811D1124911D08955058BB27D4
:10269000AA270ED04DC13ED130F043D120F031F405
:1026A0009F3F11F41EF433C10EF4E095E7FB29C1FE
:1026B000E92F4FD180F3BA17620773078407950794
:1026C00018F071F49EF567C10EF4E0950B2EBA2F49
:1026D000A02D0B01B90190010C01CA01A001112428
:1026E000FF27591B99F0593F50F4503E68F11A16D4
:1026F000F040A22F232F342F4427585FF3CF469565
:1027000037952795A795F0405395C9F77EF41F1686
:10271000BA0B620B730B840BBAF09150A1F0FF0F50
:10272000BB1F661F771F881FC2F70EC0BA0F621F3C
:10273000731F841F48F4879577956795B795F7952C
:102740009E3F08F0B3CF9395880F08F09927EE0FBE
:102750009795879508950CD0EBC0E3D040F0DAD080
:1027600030F021F45F3F19F0CCC0511115C1CFC03A
:10277000F0D098F39923C9F35523B1F3951B550B6A
:10278000BB27AA2762177307840738F09F5F5F4F44
:10279000220F331F441FAA1FA9F333D00E2E3AF085
:1027A000E0E830D091505040E695001CCAF729D09F
:1027B000FE2F27D0660F771F881FBB1F26173707EE
:1027C0004807AB07B0E809F0BB0B802DBF01FF271E
:1027D00093585F4F2AF09E3F510568F092C0DCC0CD
:1027E0005F3FECF3983EDCF3869577956795B79558
:1027F000F7959F5FC9F7880F911D9695879597F973
:102800000895E1E0660F771F881FBB1F62177307EB
:102810008407BA0720F0621B730B840BBA0BEE1F00
:1028200088F7E095089504D06894B111B5C0089573
:1028300098D088F09F5790F0B92F9927B751A0F002
:10284000D1F0660F771F881F991F1AF0BA95C9F744
:1028500012C0B13081F09FD0B1E008959CC0672FC5
:10286000782F8827B85F39F0B93FCCF386957795F4
:102870006795B395D9F73EF49095809570956195DD
:102880007F4F8F4F9F4F0895E89409C097FB3EF408
:1028900090958095709561957F4F8F4F9F4F9923AD
:1028A000A9F0F92F96E9BB279395F695879577952B
:1028B0006795B795F111F8CFFAF4BB0F11F460FFEB
:1028C0001BC06F5F7F4F8F4F9F4F16C0882311F043
:1028D00096E911C0772321F09EE8872F762F05C057
:1028E000662371F096E8862F70E060E02AF09A95F2
:1028F000660F771F881FDAF7880F9695879597F9E7
:10290000089597F99F6780E870E060E008959FEF71
:1029100080EC089500240A94161617061806090676
:10292000089500240A941216130614060506089545
:10293000092E0394000C11F4882352F0BB0F40F4CD
:10294000BF2B11F460FF04C06F5F7F4F8F4F9F4F0D
:10295000089557FD9058440F551F59F05F3F71F08F
:102960004795880F97FB991F61F09F3F79F08795F6
:102970000895121613061406551FF2CF4695F1DF7F
:1029800008C0161617061806991FF1CF869571050F
:10299000610508940895E894BB2766277727CB0143
:1029A00097F908950EF0A6C0B2CF6894AACFD9DFE8
:1029B000C8F39923D1F3C6F3DF93CF931F930F93FB
:1029C000FF92C92FDD2788232AF02197660F771FF2
:1029D000881FDAF720E030E040E85FEB9FE38839BA
:1029E00020F0803E30F021968F7751DEE8E7F0E06E
:1029F00003C04DDEE5EAF0E08BD08B01BE01EC01B7
:102A0000FB2E6F5771097595771F880B990B3EDF69
:102A100028E132E741E35FE316D0AF2D9801AE0124
:102A2000FF900F911F91CF91DF9142DE81CF0BD0AC
:102A30007FCF70DF28F075DF18F0952309F061CFA4
:102A400066CF1124A9CF85DFA0F3959FD1F3950F11
:102A500050E0551F629FF001729FBB27F00DB11D22
:102A6000639FAA27F00DB11DAA1F649F6627B00DB2
:102A7000A11D661F829F2227B00DA11D621F739F9B
:102A8000B00DA11D621F839FA00D611D221F749FA9
:102A90003327A00D611D231F849F600D211D822FF0
:102AA000762F6A2F11249F5750408AF0E1F0882337
:102AB0004AF0EE0FFF1FBB1F661F771F881F915044
:102AC0005040A9F79E3F510570F01BCF65CF5F3F87
:102AD000ECF3983EDCF3869577956795B795F79577
:102AE000E7959F5FC1F7FE2B880F911D96958795FF
:102AF00097F908959F3F31F0915020F4879577958D
:102B00006795B795880F911D9695879597F90895C4
:102B1000DF93CF931F930F93FF92EF92DF927B018E
:102B20008C01689405C0DA2EEF018DDFFE01E89478
:102B3000A5912591359145915591AEF3EF01B8DD01
:102B4000FE019701A801DA9479F7DF90EF90FF90EA
:102B50000F911F91CF91DF910895CF93DF93823032
:102B6000910510F482E090E0E0910605F0910705F0
:102B700020E030E0A0E0B0E0309739F140815181B1
:102B800048175907B8F04817590771F482819381A3
:102B9000109729F013969C938E9312972CC09093C4
:102BA00007058093060527C02115310531F042172E
:102BB000530718F0A901DB0101C0EF019A01BD0123
:102BC000DF010280F381E02DD7CF21153105F9F027
:102BD000281B390B2430310580F48A819B816115D3
:102BE000710521F0FB019383828304C09093070554
:102BF00080930605FE01329644C0FE01E20FF31FEA
:102C00008193919322503109398328833AC02091CE
:102C1000040530910505232B41F4209102013091E8
:102C200003013093050520930405209100013091A4
:102C300001012115310541F42DB73EB74091040142
:102C400050910501241B350BE0910405F091050519
:102C5000E217F307A0F42E1B3F0B2817390778F073
:102C6000AC014E5F5F4F2417350748F04E0F5F1FD2
:102C700050930505409304058193919302C0E0E0D1
:102C8000F0E0CF01DF91CF910895CF93DF930097CC
:102C900009F487C0FC01329713821282C0910605A5
:102CA000D0910705209781F420813181280F391FA9
:102CB00080910405909105058217930779F5F093AB
:102CC0000505E09304056DC0DE0120E030E0AE179D
:102CD000BF0750F412964D915C9113979D014115D9
:102CE000510509F1DA01F3CFB383A2834081518109
:102CF000840F951F8A179B0771F48D919C911197F2
:102D0000840F951F02969183808312968D919C91DA
:102D10001397938382832115310529F4F0930705D6
:102D2000E09306053EC0D9011396FC93EE931297EB
:102D30004D915D91A40FB51FEA17FB0779F48081CF
:102D40009181840F951F0296D90111969C938E93C1
:102D50008281938113969C938E931297E0E0F0E02A
:102D60008A819B81009719F0FE01EC01F9CFCE0119
:102D7000029628813981820F931F2091040530919A
:102D800005052817390769F4309729F410920705CB
:102D90001092060502C013821282D0930505C093DB
:102DA0000405DF91CF91089581E090E0F894C6C2C8
:102DB000FB01DC0101900D920020E1F70895AEE0E7
:102DC000B0E0E4EEF6E191C20D891E8986E08C83C5
:102DD0001A8309838FEF9FE79E838D83AE01475E41
:102DE0005F4F6F89788DCE01019608D0EF81F8850D
:102DF000E00FF11F10822E96E4E093C2ACE0B0E049
:102E0000E3E0F7E164C27C016B018A01FC011782F7
:102E10001682838181FFB0C1CE0101964C01F7017A
:102E20009381F60193FD859193FF81916F01882332
:102E300009F49EC1853239F493FD859193FF819108
:102E40006F01853221F4B70190E0B1D1E8CF512C68
:102E5000312C20E02032A0F48B3269F030F4803243
:102E600059F0833269F420612CC08D3239F08033FF
:102E700039F4216026C02260246023C0286021C06C
:102E800027FD27C030ED380F3A3078F426FF06C012
:102E9000FAE05F9E300D1124532E13C08AE0389E55
:102EA000300D1124332E20620CC08E3221F426FD09
:102EB0005FC1206406C08C3611F4206802C08836D9
:102EC00041F4F60193FD859193FF81916F0181118A
:102ED000C1CF982F9F7D9554933028F40C5F1F4FDE
:102EE000FFE3F9830DC0833631F0833771F083350A
:102EF00009F057C021C0F801808189830E5F1F4F00
:102F000044244394512C540114C03801F2E06F0E54
:102F1000711CF801A080B18026FF03C0652D70E010
:102F200002C06FEF7FEFC5012C8736D12C018301E2
:102F30002C852F77222E16C03801F2E06F0E711CFF
:102F4000F801A080B18026FF03C0652D70E002C0AB
:102F50006FEF7FEFC5012C8714D12C012C852068E1
:102F6000222E830123FC19C0832D90E048165906B8
:102F7000A0F4B70180E290E01AD13A94F5CFF501C0
:102F800027FC859127FE81915F01B70190E00FD169
:102F900031103A94F1E04F1A51084114510479F775
:102FA000DEC0843611F0893631F5F80127FF07C0FD
:102FB00060817181828193810C5F1F4F08C06081A5
:102FC0007181882777FD8095982F0E5F1F4F2F7690
:102FD000B22E97FF09C090958095709561957F4FAF
:102FE0008F4F9F4F2068B22E2AE030E0A40111D10C
:102FF000A82EA81843C0853729F42F7EB22E2AE0C8
:1030000030E025C0F22FF97FBF2E8F36C1F018F4C3
:10301000883579F0ADC0803719F0883721F0A8C025
:103020002F2F2061B22EB4FE0DC08B2D8460B82EE0
:1030300009C024FF0AC09F2F9660B92E06C028E061
:1030400030E005C020E130E002C020E132E0F801CC
:10305000B7FE07C060817181828193810C5F1F4F31
:1030600006C06081718180E090E00E5F1F4FA40177
:10307000D0D0A82EA818FB2DFF77BF2EB6FE0BC010
:103080002B2D2E7FA51450F4B4FE0AC0B2FC08C04C
:103090002B2D2E7E05C07A2C2B2D03C07A2C01C03F
:1030A000752C24FF0DC0FE01EA0DF11D80818033D7
:1030B00011F4297E09C022FF06C07394739404C0E2
:1030C000822F867809F0739423FD12C020FF06C07A
:1030D0005A2C731418F4530C5718732C731460F48F
:1030E000B70180E290E02C8762D073942C85F6CFF4
:1030F000731410F4371801C0312C24FF11C0B7012C
:1031000080E390E02C8753D02C8522FF16C021FF4E
:1031100003C088E590E002C088E790E0B7010CC0EA
:10312000822F867851F021FD02C080E201C08BE23F
:1031300027FD8DE2B70190E03AD0A51430F4B70135
:1031400080E390E034D05A94F8CFAA94F401EA0DC9
:10315000F11D8081B70190E02AD0A110F6CF332075
:1031600009F45DCEB70180E290E021D03A94F7CF28
:10317000F7018681978102C08FEF9FEF2C96E2E1E5
:10318000C2C0FC010590615070400110D8F78095D5
:1031900090958E0F9F1F0895FC0161507040019023
:1031A0000110D8F7809590958E0F9F1F08950F936B
:1031B0001F93CF93DF93182F092FEB018B8181FD94
:1031C00003C08FEF9FEF20C082FF10C04E815F8150
:1031D0002C813D81421753077CF4E881F9819F01DE
:1031E0002F5F3F4F39832883108306C0E885F98518
:1031F000812F0995892B29F72E813F812F5F3F4F22
:103200003F832E83812F902FDF91CF911F910F91BC
:103210000895FA01AA27283051F1203181F1E8946C
:103220006F936E7F6E5F7F4F8F4F9F4FAF4FB1E0B9
:103230003ED0B4E03CD0670F781F891F9A1FA11DB4
:10324000680F791F8A1F911DA11D6A0F711D811DB5
:10325000911DA11D20D009F468943F912AE0269F7A
:1032600011243019305D3193DEF6CF010895462FD9
:103270004770405D4193B3E00FD0C9F7F6CF462FBA
:103280004F70405D4A3318F0495D31FD4052419323
:1032900002D0A9F7EACFB4E0A695979587957795E0
:1032A0006795BA95C9F700976105710508959B0167
:1032B000AC010A2E06945795479537952795BA95F0
:1032C000C9F7620F731F841F951FA01D08952F92C9
:1032D0003F924F925F926F927F928F929F92AF92A6
:1032E000BF92CF92DF92EF92FF920F931F93CF93F3
:1032F000DF93CDB7DEB7CA1BDB0B0FB6F894DEBF8A
:103300000FBECDBF09942A88398848885F846E84AF
:103310007D848C849B84AA84B984C884DF80EE80F9
:10332000FD800C811B81AA81B981CE0FD11D0FB602
:10333000F894DEBF0FBECDBFED010895F894FFCF26
:10334000000008058000010000000B00012D2D2D5C
:10335000426173696320426C696E6B2D2D002020E1
:103360002020202020202020202020202020002D70
:103370002D2D2D2D426C696E6B2D2D2D2D2D2D009B
:103380002D2D4E455720414354494F4E20212D2D80
:10339000002D2D2D424C494E4B202050574D2D2DA8
:1033A0002D005B25735D002D2D2D2D2D204C4344CC
:1033B00021202D2D2D2D2D00526561647920666F01
:1033C0007220696E70757421004C434420726561EF
:1033D000647920666F7220696E7075742100426F87
:1033E0006F74696E672075702068656C6C6F2077EC
:1033F0006F726C64002D2D2D534552564F204B4E4D
:103400004F422D2D2D0052657369737473204D6FDB
:1034100076656D656E74002D2D2D534552564F20E7
:1034200053776565702D2D00537765657073206146
:103430006E676C6573202020002D2D54454D502063
:10344000463A253033642D2D002D2D2D4B3A253055
:10345000336420433A253033642D2D002D2D2D5516
:103460004C545241534F4E49432D2D2D00447572FB
:103470003A2530336420434D3A2530336400447597
:10348000726174696F6E3A256C6420636D3A256CC5
:10349000640053657269616C2072656164790043F0
:1034A00068616E6765206F6620616374696F6E2066
:1034B000746F3A256400454E44204F4620414354E2
:1034C000494F4E5300416374696F6E203D203000B8
:1034D000000000006707D008EB060407F606460761
:1034E0000D0A006E616E00696E66006F7666002ED2
:1034F0000000000000CA0BD008370CC80BC90B69CC
:103500000900000000CA0BD008B70DA80CBC0C9B2A
:103510000D000000007D0E510E260E2E0E410E50A5
:023520000E009B
:00000001FF
