:1000000065C000008AC0000088C0000086C00000F3
:1000100084C0000082C0000080C000001BC200003D
:100020007CC000007AC0000078C00000E1C1000080
:1000300074C0000072C00000A9C100006EC00000C2
:1000400053C500006AC000004BC400007BC4000020
:1000500064C0000062C0000060C000005EC000001C
:100060000C94020B5AC000000000000800020100BE
:100070000003040700000000000000000102040863
:100080001020408001020408102001020408102002
:10009000040404040404040402020202020203032E
:1000A00003030303000000002300260029000000D2
:1000B0000000250028002B0000000000240027007D
:1000C0002A004C016001C602D004630A11241FBE3D
:1000D000CFEFD8E0DEBFCDBF11E0A0E0B1E0E6E0B9
:1000E000F3E202C005900D92AA3BB107D9F723E0D5
:1000F000AAEBB1E001C01D92AB34B207E1F710E00A
:10010000CCECD0E004C02297FE010E946C0CC23CF3
:10011000D107C9F7DDD40C94811172CFCF92DF9251
:10012000EF92FF920F931F93E82FF92F05C0015014
:1001300011092109310961F1908196239417B9F3CE
:1001400005C0015011092109310911F1908196234F
:100150009413F7CFC12CD12CE12CF12C0AC08FEFD6
:10016000C81AD80AE80AF80A0C151D052E053F051D
:1001700079F080818623841791F36C2D7D2D8E2D4F
:100180009F2D1F910F91FF90EF90DF90CF900895DA
:1001900060E070E080E090E01F910F91FF90EF90A1
:1001A000DF90CF90089561E08DE0EAD568EE73E0CE
:1001B00080E090E006D560E08DE0E2D566E970E091
:1001C00080E090E0FEC4CF93DF93EC0161E0888192
:1001D0009ED561E08881DF91CF91D2C5CF93DF9327
:1001E000EC0161E08881CCD568EC70E080E090E0C3
:1001F000E8D460E08881C4D568EC70E080E090E0ED
:10020000E0D461E08881BCD568EC70E080E090E0EB
:10021000D8D460E08881B4D568EC70E080E090E0EC
:10022000DF91CF91CEC4CF93DF9300D0CDB7DEB7AF
:1002300089839A83B8DF89819A81D0DF64EF71E086
:1002400080E090E00F900F90DF91CF91BAC4CF93F0
:10025000DF93EC0161E0888193D562E370E080E098
:1002600090E0AFD460E088818BD562E370E080E0FD
:1002700090E0A7D461E0888183D562E370E080E0FC
:1002800090E09FD460E088817BD56AEF70E080E0E9
:1002900090E0DF91CF9195C48BE090E09093BB010B
:1002A0008093BA0108958DEB91E020D640E060E0A4
:1002B0008DEB91E020D668E071E08DEB91E0F1C329
:1002C0008F92AF92CF92EF920F931F921F9283E083
:1002D0008F9387E0882E96E0A92E25E0C22E34E089
:1002E000E32E00E021E042E06FE38DEB91E03BD7AD
:1002F0000F900F900F900F91EF90CF90AF908F9045
:10030000089561E171E081EE91E0CFD320E042E019
:1003100060E18DEB91E0ACD78DEB91E0CFD564E659
:1003200070E080E090E04DD48DEB91E0CFD564E6B5
:1003300070E080E090E045D48DEB91E0BFD564E6BD
:1003400070E080E090E03DD48DEB91E0BFD564E6B5
:1003500070E080E090E035D48DEB91E0AFD58DEB8F
:1003600091E0C4D540E060E08DEB91E0C4D568E257
:1003700071E08DEB91E095D341E060E08DEB91E091
:10038000BAD567E371E08DEB91E08BC31F920F92BA
:100390000FB60F9211242F933F934F935F936F9358
:1003A0007F938F939F93AF93BF93EF93FF9380912E
:1003B000D801882331F061E088E0E2D41092D801BE
:1003C00006C060E088E0DCD481E08093D801FF9132
:1003D000EF91BF91AF919F918F917F916F915F91BD
:1003E0004F913F912F910F900FBE0F901F90189536
:1003F0001F920F920FB60F9211242F933F934F939A
:100400005F936F937F938F939F93AF93BF93EF937C
:10041000FF938091D701882331F061E08DE0B0D463
:100420001092D70106C060E08DE0AAD481E08093ED
:10043000D701FF91EF91BF91AF919F918F917F91E4
:100440006F915F914F913F912F910F900FBE0F9041
:100450001F9018951F920F920FB60F9211242F9391
:100460003F934F935F936F937F938F939F93AF933C
:10047000BF93EF93FF938091D601882331F061E021
:1004800089E07ED41092D60106C060E089E078D47D
:1004900081E08093D601FF91EF91BF91AF919F9141
:1004A0008F917F916F915F914F913F912F910F901D
:1004B0000FBE0F901F901895CF93DF93EC0161E072
:1004C000888125D460E08A81DF91CF9120C40F9389
:1004D0001F93CF93DF93EC0160E0888151D485E0D6
:1004E00090E0A6D361E088814BD48AE090E0A0D36D
:1004F00060E0888145D460E08A8109D420E432E458
:100500004FE050E061E08A8198D4EB01182F092F69
:1005100022E030E040E050E00E944E0CCA01B901F8
:100520000E940B0D2DEC3CEC48EE51E40E94700C47
:100530000E94D80C9F938F937F936F930F931F9379
:10054000DF93CF9387E491E09F938F938091DE01B7
:100550008F938091DD018F930E94C20E6091DD0127
:100560007091DE0181EE91E0A0D28DB79EB70C961E
:100570000FB6F8949EBF0FBE8DBF6AEF70E080E0AB
:1005800090E0DF91CF911F910F911BC382E390E028
:10059000A9D29093DE018093DD018CE090E09093EE
:1005A000DA018093D9018DE090E09093DC01809393
:1005B000DB01089526E040E855E260E070E081EE5E
:1005C00091E02DD16BE571E081EE91E06ED260E0BB
:1005D000809106019CD38AEB91E0F5DD8CEB91E0F4
:1005E00090DE89ED91E068CFCF93DF938091060193
:1005F000FCD3019791F480910601F7D3EC018AEBCB
:1006000091E025DE2197B9F38091DF019091E0011F
:1006100001969093E0018093DF018091DF0190913A
:10062000E0018130910551F08230910561F0892B14
:1006300079F48AEB91E0DF91CF91F5CD8CEB91E0ED
:10064000DF91CF9130CE89ED91E0DF91CF913FCF17
:100650001092E0011092DF01DF91CF910895FC012B
:10066000818D228D90E0805C9F4F821B91098F735A
:1006700099270895FC01918D828D981731F0828D14
:10068000E80FF11D858D90E008958FEF9FEF08959D
:10069000FC01918D828D981761F0828DDF01A80F8A
:1006A000B11D5D968C91928D9F5F9F73928F90E0AC
:1006B00008958FEF9FEF089587EC94E0892B41F028
:1006C00080E090E0892B21F062D181110C94000030
:1006D0000895FC01848DDF01A80FB11DA35ABF4FFF
:1006E0002C91848D90E001968F739927848FA68931
:1006F000B7892C93A089B1898C9180648C93938D58
:10070000848D981306C00288F389E02D80818F7D47
:1007100080830895CF93DF93EC01888D8823C1F007
:10072000EA89FB89808185FD05C0A889B9898C91FA
:1007300086FD0EC00FB607FCF5CF808185FFF2CF96
:10074000A889B9898C9185FFEDCFCE01C2DFE8CFB2
:10075000DF91CF910895CF92DF92FF920F931F9375
:10076000CF93DF931F92CDB7DEB76C0181E0D60146
:1007700058968C9358975B969C915B975C968C915E
:100780005C97981307C05096ED91FC91519780812A
:1007900085FD2DC0F601038D10E00F5F1F4F0F7315
:1007A0001127F02EF601848DF81210C00FB607FC49
:1007B000F9CFD6015096ED91FC915197808185FF3C
:1007C000F1CFC601698385DF6981ECCF838DE80FA6
:1007D000F11DE35AFF4F6083D6015B960C935B9744
:1007E0005296ED91FC915397808180620CC0D601A6
:1007F0005696ED91FC91579760835096ED91FC9140
:10080000519780818064808381E090E00F90DF9138
:10081000CF911F910F91FF90DF90CF900895BF92DD
:10082000CF92DF92EF92FF92CF93DF93EC016A01B8
:100830007B01B22EE889F98982E08083411581EE3F
:10084000580761057105A1F060E079E08DE390E063
:10085000A70196010E942C0C215031094109510930
:100860005695479537952795211580E1380790F0E3
:10087000E889F989108260E874E88EE190E0A701C8
:100880009601EAD7215031094109510956954795FA
:1008900037952795EC85FD853083EE85FF85208390
:1008A000188EEC89FD89B082EA89FB89808180619C
:1008B0008083EA89FB89808188608083EA89FB895B
:1008C000808180688083EA89FB8980818F7D808335
:1008D000DF91CF91FF90EF90DF90CF90BF90089580
:1008E0001F920F920FB60F9211242F938F939F9305
:1008F000EF93FF93E091F101F091F2018081E0919B
:10090000F701F091F80182FD12C090818091FA0107
:100910008F5F8F732091FB01821751F0E091FA01F4
:10092000F0E0EF51FE4F958F8093FA0101C0808176
:10093000FF91EF919F918F912F910F900FBE0F908C
:100940001F9018951F920F920FB60F9211242F939C
:100950003F934F935F936F937F938F939F93AF9347
:10096000BF93EF93FF9381EE91E0B3DEFF91EF91A0
:10097000BF91AF919F918F917F916F915F914F91B7
:100980003F912F910F900FBE0F901F90189581EE01
:1009900091E065DE21E0892B09F420E0822F0895A3
:1009A0001092E4011092E30188EE93E0A0E0B0E041
:1009B0008093E5019093E601A093E701B093E801ED
:1009C0008CE691E09093E2018093E10185EC90E068
:1009D0009093EE018093ED0184EC90E09093F00110
:1009E0008093EF0180EC90E09093F2018093F1010D
:1009F00081EC90E09093F4018093F30182EC90E01D
:100A00009093F6018093F50186EC90E09093F801C5
:100A10008093F7011092FA011092FB011092FC01F1
:100A20001092FD010895CF92DF92EF92FF920F9303
:100A30001F93CF93DF937C016A01EB0100E010E08C
:100A40000C151D0571F06991D701ED91FC91019094
:100A5000F081E02DC7010995892B19F00F5F1F4F19
:100A6000EFCFC801DF91CF911F910F91FF90EF90D1
:100A7000DF90CF9008956115710581F0DB010D9035
:100A80000020E9F7AD0141505109461B570BDC012D
:100A9000ED91FC910280F381E02D099480E090E0DB
:100AA0000895E9CF68E771E0E6CF0F931F93CF93E6
:100AB000DF93EC01E0DF8C01CE01F4DF800F911FAA
:100AC000DF91CF911F910F9108950E94BE0E08955E
:100AD000BAD0FDDF6FDDCCE5D3E086DD2097E9F30A
:100AE000EBDDFBCF0C94970D1F920F920FB60F9278
:100AF00011242F933F938F939F93AF93BF93809134
:100B00007F0290918002A0918102B0918202309187
:100B10007E0223E0230F2D3720F40196A11DB11D85
:100B200005C026E8230F0296A11DB11D20937E0269
:100B300080937F0290938002A0938102B0938202FF
:100B40008091830290918402A0918502B0918602E7
:100B50000196A11DB11D8093830290938402A093FE
:100B60008502B0938602BF91AF919F918F913F9183
:100B70002F910F900FBE0F901F9018953FB7F894CC
:100B80008091830290918402A0918502B0918602A7
:100B900026B5A89B05C02F3F19F00196A11DB11DD8
:100BA0003FBF6627782F892F9A2F620F711D811DF5
:100BB000911D42E0660F771F881F991F4A95D1F754
:100BC00008958F929F92AF92BF92CF92DF92EF9251
:100BD000FF926B017C01D2DF4B015C01C114D10497
:100BE000E104F104E1F054D1C9DF681979098A09F7
:100BF0009B09683E73408105910580F321E0C21A8C
:100C0000D108E108F10888EE880E83E0981EA11C47
:100C1000B11CC114D104E104F10431F7DFCFFF901E
:100C2000EF90DF90CF90BF90AF909F908F900895FE
:100C30008230910538F0880F991F880F991F05970A
:100C40000197F1F70895789484B5826084BD84B5E6
:100C5000816084BD85B5826085BD85B5816085BDB7
:100C6000EEE6F0E0808181608083E1E8F0E01082D0
:100C7000808182608083808181608083E0E8F0E011
:100C8000808181608083E1EBF0E0808184608083FB
:100C9000E0EBF0E0808181608083EAE7F0E0808132
:100CA0008460808380818260808380818160808392
:100CB0008081806880831092C1000895833081F024
:100CC00028F4813099F08230A1F008958730A9F09E
:100CD0008830B9F08430D1F4809180008F7D03C0DA
:100CE000809180008F7780938000089584B58F77FE
:100CF00002C084B58F7D84BD08958091B0008F7748
:100D000003C08091B0008F7D8093B0000895CF9391
:100D1000DF9390E0FC01E458FF4F2491FC01E05781
:100D2000FF4F8491882349F190E0880F991FFC01BF
:100D3000E854FF4FA591B49182559F4FFC01C59196
:100D4000D4919FB7611108C0F8948C9120958223AB
:100D50008C93888182230AC0623051F4F8948C917C
:100D6000322F309583238C938881822B888304C013
:100D7000F8948C91822B8C939FBFDF91CF91089533
:100D80000F931F93CF93DF931F92CDB7DEB7282F1A
:100D900030E0F901E859FF4F8491F901E458FF4F21
:100DA0001491F901E057FF4F04910023C1F088230B
:100DB00019F0698383DF6981E02FF0E0EE0FFF1FF8
:100DC000E255FF4FA591B4919FB7F8948C916111B2
:100DD00003C01095812301C0812B8C939FBF0F907E
:100DE000DF91CF911F910F910895CF93DF93282F1B
:100DF00030E0F901E859FF4F8491F901E458FF4FC1
:100E0000D491F901E057FF4FC491CC2389F08111AF
:100E100055DFEC2FF0E0EE0FFF1FEC55FF4FA591D3
:100E2000B4912C912D2381E090E021F480E002C068
:100E300080E090E0DF91CF9108950F931F93762F7C
:100E400090E0FC01E458FF4F6491FC01E057FF4F34
:100E5000E4917111762FF0E0EE0FFF1FEC55FF4F7C
:100E60008591949189019A013F70472F57D9611557
:100E700071058105910531F06F5F7F4F8F4F9F4F57
:100E80009F7003C060E070E0CB011F910F91089547
:100E9000089508950895DC01ED91FC910284F38595
:100EA000E02D41E0099581E090E00895FC01138276
:100EB00012822DE831E0318320830895DC01ED9129
:100EC000FC910084F185E02D6FEF0994DC01ED9138
:100ED000FC910084F185E02D60E00994DC01ED9146
:100EE000FC910284F385E02D40E0099461E0F6DF97
:100EF00080ED97E09DCECF93DF93CDB7DEB72897F7
:100F00000FB6F894DEBF0FBECDBF1D8220E42E8346
:100F100034E13F8334E5388719822A8320E12B832B
:100F200020E52C83FC012781421710F04FEF420F80
:100F3000FC01308550E0FE01E40FF51F303121F453
:100F4000243011F4218101C02581260F2068622FF1
:100F500028960FB6F894DEBF0FBECDBFDF91CF91BC
:100F6000BDCFFC016581262F246025836C60B6CF40
:100F7000CF93DF93EC01423018F08C8188608C8332
:100F80004F836887222329F0413019F48C818460D3
:100F90008C8364E670E080E090E013DE6C8164FD99
:100FA0002EC0E881F9810284F385E02D42E063E000
:100FB000CE01099584E991E13BDEE881F981028463
:100FC000F385E02D42E063E0CE01099586E990E0EB
:100FD0002FDEE881F9810284F385E02D42E063E0B1
:100FE000CE01099586E990E023DEE881F98102844B
:100FF000F385E02D42E062E0CE01099511C0606208
:10100000CE016CDF84E991E113DE6C816062CE0178
:1010100065DF86E990E00CDE6C816062CE015EDF08
:1010200086E990E005DE6C816062CE0157DF8CE3DB
:1010300090E0FEDD84E08D83CE0193DFCE0156DFAC
:1010400082E08E8366E0CE0149DFCE01DF91CF9151
:1010500035CF21E001C0220F6A95EAF7DC011C962A
:101060002C931C971A965C934E931997ED91FC91D3
:101070000084F185E02D60E00994FC0124852223A1
:1010800091F081859285009719F4611105C006C021
:10109000019721F4611102C0258701C0158665857D
:1010A000CF010E9631C108950F931F93CF93DF9315
:1010B000EC018C01025F1F4F6B85C8010FD10197B6
:1010C00051F461E0C801F4D01C8260E0C8011CD179
:1010D00081E090E002C080E090E0DF91CF911F912D
:1010E0000F9108958F92AF92CF92EF920F93CF937B
:1010F000DF93CDB7DEB7FC016387148615861286B1
:10110000118681E0982F01C0990F4A95EAF7928BDA
:10111000982F01C0990F2A95EAF7938B982F01C059
:10112000990F0A95EAF7948B982F01C0990FEA94CA
:10113000EAF7958B982F01C0990FCA94EAF7968B1E
:10114000982F01C0990FAA94EAF7978B01C0880FD6
:101150008A94EAF7808FDF91CF910F91EF90CF9033
:10116000AF908F9008954F925F926F927F928F927F
:10117000AF92CF92EF920F931F93CF93DF9300D054
:101180001F92CDB7DEB73C011A894B885C882B8350
:101190004A8369838BDE8DE991E0F301918380833B
:1011A000C3010E967ED02B814A816981C3019ADFEB
:1011B000A201612FC3010F900F900F90DF91CF918B
:1011C0001F910F91EF90CF90AF908F907F906F9085
:1011D0005F904F903ECFFF920F931F93CF93DF937B
:1011E000EC01F62E8C01025F1F4F6A896F29C8013E
:1011F0008BD06A8960956F21C801DF91CF911F91D3
:101200000F91FF9081C020E030E050E060FF05C00A
:10121000FC01E20FF31F7589572B66952F5F3F4F37
:101220002430310599F7413011F4FC014489FC0167
:101230006585652B642BCFCF0F931F93CF93DF93DF
:10124000EC01142F062F0F70423011F440E009C05A
:1012500070E084E0759567958A95E1F7CE01D3DF5C
:10126000412F602FCE01DF91CF911F910F91CBCFF6
:101270000F931F93CF93DF9300D01F92CDB7DEB7AC
:101280008C012B834A8369830FDF2B814A8169811B
:10129000C8010F900F900F90DF91CF911F910F9188
:1012A00067CEFC0112828FEF818310821382089532
:1012B000FC018381882331F0611103C08FEF8183AA
:1012C00008951182089587E892E0DFD087E892E0E0
:1012D000F8D091E0811190E0892F0895CF93DF93AA
:1012E000EC016A8387E892E0C7D06A81CE01EBDF28
:1012F0008B83882321F087E892E031D088838B812B
:1013000090E0DF91CF910895CF93DF93EC018B8133
:10131000882391F089818095862388836A8187E874
:1013200092E0B3D0688187E892E068D087E892E0E5
:10133000C8D0282F30E002C020E030E081E090E00B
:10134000232B11F080E090E0DF91CF910895809100
:10135000B70290E02091B802821B91090895209174
:10136000B8028091B702281750F4E22FF0E0E7545A
:10137000FD4F808190E02F5F2093B80208958FEF9A
:101380009FEF0895E091B8028091B702E81730F41A
:10139000F0E0E754FD4F808190E008958FEF9FEFDC
:1013A00008950895CF92DF92EF92FF920F931F93CB
:1013B000CF93DF937C01CB018A01209193022223FA
:1013C00089F0EB016B01C40ED51ECC15DD0561F073
:1013D0006991D701ED91FC910190F081E02DC70159
:1013E0000995F3CF642FE5D0C801DF91CF911F910C
:1013F0000F91FF90EF90DF90CF900895CF93DF9300
:101400001F92CDB7DEB76983209193022223D1F0DA
:1014100020919402203240F021E030E0FC0133833F
:10142000228380E090E014C080919502E82FF0E0E4
:10143000EA56FD4F998190838F5F80939502809348
:10144000940204C061E0CE010196B3D081E090E047
:101450000F90DF91CF910895FC011382128248EE24
:1014600053E060E070E044835583668377838DEAC0
:1014700091E09183808308951092B8021092B70290
:10148000109295021092940221C081E08093930201
:101490006093B602109295021092940208950F93F1
:1014A000062F21E04091940266E972E08091B60235
:1014B00029D01092950210929402109293020F91EB
:1014C000089561E0ECCF87E892E0C6CF1092460322
:1014D00081E0809344031092430361E082E150DC99
:1014E00061E083E14DDCE9EBF0E080818E7F808379
:1014F00080818D7F808388E48093B80085E4809329
:10150000BC0008950F93413208F04AC09091460301
:101510009111FCCF92E090934603009344039FEF18
:101520009093D90210921E0340931D03FB016FE1BB
:1015300073E0DB019A2F961B941718F491919D93F9
:10154000F9CF1092450390914503880F892B809322
:10155000450380914303813061F4109243038091ED
:1015600045038093BB008091BC0083FDF8CF85ECE0
:1015700001C085EE8093BC00222321F080914603B8
:101580008230E1F38091D9028F3F61F08091D902DE
:10159000803251F08091D902803341F483E007C05A
:1015A00081E005C080E003C082E001C084E00F91CB
:1015B0000895613298F420914603243089F46093B1
:1015C000FB02FC018DEF92E0DC012A2F281B26177D
:1015D00018F421912D93F9CF80E0089581E00895CA
:1015E00082E0089585ED8093BC008091BC0084FD6D
:1015F000FCCF10924603089585EC8093BC001092B6
:10160000460308951F920F920FB60F9211242F9345
:101610003F934F935F936F937F938F939F93AF937A
:10162000BF93EF93FF938091B900887F803609F4D0
:101630009DC070F5883209F45CC090F4803109F4E3
:1016400055C038F4882309F4F3C0883009F44EC03B
:10165000F2C0883109F44DC0803209F45EC0EBC09D
:10166000803409F469C050F4803309F456C08833DB
:1016700009F0E1C08093D902BFDFDDC0803509F4F5
:101680004FC0883509F45DC0883409F0D4C0D2C099
:10169000883909F4C3C0A8F4883709F467C038F45E
:1016A000883609F463C0803709F460C0C4C0883844
:1016B00009F4B4C0803909F45FC0803809F0BBC0B8
:1016C0005BC0803B09F482C038F4803A09F466C0FC
:1016D000883A09F47BC0AFC0803C09F4A3C0883CC1
:1016E00009F4A0C0883B09F486C0A5C080914503D9
:1016F00010C090911E0380911D03981770F5E09122
:101700001E0381E08E0F80931E03F0E0E15EFC4F2C
:1017100080818093BB0085EC82C08093D9028AC00F
:10172000E0911E0381E08E0F80931E038091BB0029
:10173000F0E0E15EFC4F808390911E0380911D03D9
:101740006AC0E0911E0381E08E0F80931E0380919A
:10175000BB00F0E0E15EFC4F808380914403811187
:1017600069C081E08093430384EA5DC083E0809395
:1017700046031092DA02CFCF8091DA02803208F06D
:101780004DC0E091DA0281E08E0F8093DA02809101
:10179000BB00F0E0E552FD4F8083BDCF2DDF80918F
:1017A000DA02803230F4E091DA02F0E0E552FD4FE7
:1017B00010826091DA0270E0E0913F03F091400303
:1017C0008BED92E009951092DA0235C084E08093A7
:1017D00046031092FC021092FB02E0914103F0914B
:1017E000420309958091FB02811105C081E080933D
:1017F000FB021092FD02E091FC0281E08E0F8093CB
:10180000FC02F0E0E350FD4F80818093BB0090919B
:10181000FC028091FB02981708F47DCF85E8809345
:10182000BC0009C085EC8093BC001092460303C045
:101830001092D902D7DEFF91EF91BF91AF919F91A6
:101840008F917F916F915F914F913F912F910F9069
:101850000FBE0F901F901895A1E21A2EAA1BBB1B5A
:10186000FD010DC0AA1FBB1FEE1FFF1FA217B3076C
:10187000E407F50720F0A21BB30BE40BF50B661F82
:10188000771F881F991F1A9469F760957095809546
:1018900090959B01AC01BD01CF010895052E97FBEA
:1018A00016F400940FD057FD05D0D6DF07FC02D008
:1018B00046F408C050954095309521953F4F4F4FC5
:1018C0005F4F089590958095709561957F4F8F4FEC
:1018D0009F4F0895EE0FFF1F0590F491E02D09949E
:1018E0000CD0EBC0E3D040F0DAD030F021F45F3F11
:1018F00019F0CCC0511115C1CFC0F0D098F3992385
:10190000C9F35523B1F3951B550BBB27AA276217C3
:101910007307840738F09F5F5F4F220F331F441F08
:10192000AA1FA9F333D00E2E3AF0E0E830D0915040
:101930005040E695001CCAF729D0FE2F27D0660F2D
:10194000771F881FBB1F261737074807AB07B0E86C
:1019500009F0BB0B802DBF01FF2793585F4F2AF082
:101960009E3F510568F092C0DCC05F3FECF3983EAB
:10197000DCF3869577956795B795F7959F5FC9F7DF
:10198000880F911D9695879597F90895E1E0660F68
:10199000771F881FBB1F621773078407BA0720F0E1
:1019A000621B730B840BBA0BEE1F88F7E09508954A
:1019B00004D06894B111B5C0089598D088F09F57AD
:1019C00090F0B92F9927B751A0F0D1F0660F771F8B
:1019D000881F991F1AF0BA95C9F712C0B13081F06B
:1019E0009FD0B1E008959CC0672F782F8827B85FFB
:1019F00039F0B93FCCF3869577956795B395D9F7CC
:101A00003EF490958095709561957F4F8F4F9F4FD5
:101A10000895E89409C097FB3EF4909580957095E1
:101A200061957F4F8F4F9F4F9923A9F0F92F96E92A
:101A3000BB279395F695879577956795B795F1119F
:101A4000F8CFFAF4BB0F11F460FF1BC06F5F7F4F3C
:101A50008F4F9F4F16C0882311F096E911C077234E
:101A600021F09EE8872F762F05C0662371F096E857
:101A7000862F70E060E02AF09A95660F771F881F26
:101A8000DAF7880F9695879597F9089597F99F67E4
:101A900080E870E060E008959FEF80EC08950024F6
:101AA0000A941616170618060906089500240A94C3
:101AB00012161306140605060895092E0394000C49
:101AC00011F4882352F0BB0F40F4BF2B11F460FFD8
:101AD00004C06F5F7F4F8F4F9F4F089557FD905801
:101AE000440F551F59F05F3F71F04795880F97FBE2
:101AF000991F61F09F3F79F087950895121613069C
:101B00001406551FF2CF4695F1DF08C016161706CA
:101B10001806991FF1CF86957105610508940895FF
:101B2000E894BB2766277727CB0197F90895CF93D1
:101B3000DF938230910510F482E090E0E091490358
:101B4000F0914A0320E030E0A0E0B0E0309739F1B6
:101B50004081518148175907B8F04817590771F467
:101B600082819381109729F013969C938E931297FC
:101B70002CC090934A038093490327C02115310557
:101B800031F04217530718F0A901DB0101C0EF0142
:101B90009A01BD01DF010280F381E02DD7CF21152D
:101BA0003105F9F0281B390B2430310580F48A8186
:101BB0009B816115710521F0FB019383828304C031
:101BC00090934A0380934903FE01329644C0FE017C
:101BD000E20FF31F819391932250310939832883B7
:101BE0003AC02091470330914803232B41F42091C0
:101BF0000201309103013093480320934703209161
:101C00000001309101012115310541F42DB73EB796
:101C10004091040150910501241B350BE0914703CD
:101C2000F0914803E217F307A0F42E1B3F0B28178F
:101C3000390778F0AC014E5F5F4F2417350748F045
:101C40004E0F5F1F50934803409347038193919336
:101C500002C0E0E0F0E0CF01DF91CF910895CF9393
:101C6000DF93009709F487C0FC0132971382128238
:101C7000C0914903D0914A03209781F4208131819A
:101C8000280F391F809147039091480382179307CB
:101C900079F5F0934803E09347036DC0DE0120E03F
:101CA00030E0AE17BF0750F412964D915C91139738
:101CB0009D014115510509F1DA01F3CFB383A283E8
:101CC00040815181840F951F8A179B0771F48D9174
:101CD0009C911197840F951F029691838083129691
:101CE0008D919C911397938382832115310529F45B
:101CF000F0934A03E09349033EC0D9011396FC9345
:101D0000EE9312974D915D91A40FB51FEA17FB0753
:101D100079F480819181840F951F0296D9011196E3
:101D20009C938E938281938113969C938E931297AA
:101D3000E0E0F0E08A819B81009719F0FE01EC0160
:101D4000F9CFCE01029628813981820F931F20910D
:101D50004703309148032817390769F4309729F46D
:101D600010924A031092490302C013821282D09348
:101D70004803C0934703DF91CF91089581E090E03D
:101D8000F894BFC2AEE0B0E0E7ECFEE091C20D898E
:101D90001E8986E08C831A8309838FEF9FE79E83D9
:101DA0008D83AE01475E5F4F6F89788DCE010196BE
:101DB00008D0EF81F885E00FF11F10822E96E4E045
:101DC00093C2ACE0B0E0E6EEFEE064C27C016B01E1
:101DD0008A01FC0117821682838181FFB0C1CE0186
:101DE00001964C01F7019381F60193FD859193FFD4
:101DF00081916F01882309F49EC1853239F493FDE6
:101E0000859193FF81916F01853221F4B70190E0B4
:101E1000B1D1E8CF512C312C20E02032A0F48B320C
:101E200069F030F4803259F0833269F420612CC0BB
:101E30008D3239F0803339F4216026C0226024606D
:101E400023C0286021C027FD27C030ED380F3A306D
:101E500078F426FF06C0FAE05F9E300D1124532E61
:101E600013C08AE0389E300D1124332E20620CC03E
:101E70008E3221F426FD5FC1206406C08C3611F439
:101E8000206802C0883641F4F60193FD859193FFE6
:101E900081916F018111C1CF982F9F7D955493300F
:101EA00028F40C5F1F4FFFE3F9830DC0833631F038
:101EB000833771F0833509F057C021C0F801808164
:101EC00089830E5F1F4F44244394512C540114C046
:101ED0003801F2E06F0E711CF801A080B18026FF7E
:101EE00003C0652D70E002C06FEF7FEFC5012C8746
:101EF00036D12C0183012C852F77222E16C0380174
:101F0000F2E06F0E711CF801A080B18026FF03C0C3
:101F1000652D70E002C06FEF7FEFC5012C8714D1F3
:101F20002C012C852068222E830123FC19C0832DCF
:101F300090E048165906A0F4B70180E290E01AD16B
:101F40003A94F5CFF50127FC859127FE81915F0139
:101F5000B70190E00FD131103A94F1E04F1A5108D7
:101F60004114510479F7DEC0843611F0893631F519
:101F7000F80127FF07C060817181828193810C5F26
:101F80001F4F08C060817181882777FD8095982F49
:101F90000E5F1F4F2F76B22E97FF09C09095809548
:101FA000709561957F4F8F4F9F4F2068B22E2AE02A
:101FB00030E0A40111D1A82EA81843C0853729F418
:101FC0002F7EB22E2AE030E025C0F22FF97FBF2EFF
:101FD0008F36C1F018F4883579F0ADC0803719F02C
:101FE000883721F0A8C02F2F2061B22EB4FE0DC07B
:101FF0008B2D8460B82E09C024FF0AC09F2F9660E5
:10200000B92E06C028E030E005C020E130E002C073
:1020100020E132E0F801B7FE07C060817181828162
:1020200093810C5F1F4F06C06081718180E090E05A
:102030000E5F1F4FA401D0D0A82EA818FB2DFF774C
:10204000BF2EB6FE0BC02B2D2E7FA51450F4B4FE70
:102050000AC0B2FC08C02B2D2E7E05C07A2C2B2D79
:1020600003C07A2C01C0752C24FF0DC0FE01EA0DBF
:10207000F11D8081803311F4297E09C022FF06C042
:102080007394739404C0822F867809F0739423FDAF
:1020900012C020FF06C05A2C731418F4530C5718A2
:1020A000732C731460F4B70180E290E02C8762D047
:1020B00073942C85F6CF731410F4371801C0312CAB
:1020C00024FF11C0B70180E390E02C8753D02C850A
:1020D00022FF16C021FF03C088E590E002C088E718
:1020E00090E0B7010CC0822F867851F021FD02C02C
:1020F00080E201C08BE227FD8DE2B70190E03AD08B
:10210000A51430F4B70180E390E034D05A94F8CFAE
:10211000AA94F401EA0DF11D8081B70190E02AD064
:10212000A110F6CF332009F45DCEB70180E290E034
:1021300021D03A94F7CFF7018681978102C08FEFC3
:102140009FEF2C96E2E1C2C0FC0105906150704007
:102150000110D8F7809590958E0F9F1F0895FC0170
:102160006150704001900110D8F7809590958E0FC6
:102170009F1F08950F931F93CF93DF93182F092F5D
:10218000EB018B8181FD03C08FEF9FEF20C082FFA9
:1021900010C04E815F812C813D81421753077CF432
:1021A000E881F9819F012F5F3F4F39832883108396
:1021B00006C0E885F985812F0995892B29F72E819D
:1021C0003F812F5F3F4F3F832E83812F902FDF91E1
:1021D000CF911F910F910895FA01AA27283051F14C
:1021E000203181F1E8946F936E7F6E5F7F4F8F4F48
:1021F0009F4FAF4FB1E03ED0B4E03CD0670F781FA7
:10220000891F9A1FA11D680F791F8A1F911DA11D8B
:102210006A0F711D811D911DA11D20D009F46894C4
:102220003F912AE0269F11243019305D3193DEF66C
:10223000CF010895462F4770405D4193B3E00FD022
:10224000C9F7F6CF462F4F70405D4A3318F0495D0D
:1022500031FD4052419302D0A9F7EACFB4E0A695F0
:102260009795879577956795BA95C9F70097610512
:10227000710508959B01AC010A2E06945795479568
:1022800037952795BA95C9F7620F731F841F951F5D
:10229000A01D08952F923F924F925F926F927F926E
:1022A0008F929F92AF92BF92CF92DF92EF92FF9266
:1022B0000F931F93CF93DF93CDB7DEB7CA1BDB0B12
:1022C0000FB6F894DEBF0FBECDBF09942A883988B7
:1022D00048885F846E847D848C849B84AA84B984BE
:1022E000C884DF80EE80FD800C811B81AA81B981CA
:1022F000CE0FD11D0FB6F894DEBF0FBECDBFED01DE
:062300000895F894FFCFE0
:1023060000004B0380000A004C4344204C4F4F50C2
:1023160000426F6F74696E672075702068656C6C1B
:102326006F20776F726C6400557365205365726910
:10233600616C204D6F6E005479706520746F206457
:102346006973706C6179004475726174696F6E3A75
:10235600256C6420636D3A256C640053657269616F
:102366006C2072656164790000000000AB03130500
:102376002F0348033A038A030D0A006E616E006953
:102386006E66006F7666002E00000000004B071395
:1023960005B80749074A076505000000004B071303
:1023A60005380929083D081C0900000000FE09D26D
:0A23B60009A709AF09C209D1090007
:00000001FF
