:100000009CC00000C1C00000BFC00000BDC0000017
:10001000BBC00000B9C00000B7C00000B5C0000000
:10002000B3C00000B1C00000AFC000000C94160FB8
:10003000ABC00000A9C00000A7C00000A5C0000020
:100040000C944008A1C00000D0C6000000C700000A
:100050009BC0000099C0000097C0000095C0000040
:100060000C94EC0D91C00000F204FD040F05210575
:1000700068057A058F0508000000BE922449123EEB
:10008000ABAAAA2ABECDCCCC4C3E00000080BEABB1
:10009000AAAAAA3E00000000BF000000803F0000A6
:1000A000000000084178D3BB4387D1133D190E3CB3
:1000B000C3BD4282AD2B3E68EC8276BED98FE1A9EA
:1000C0003E4C80EFFFBE01C4FF7F3F0000000000F8
:1000D0000000000800020100000304070000000007
:1000E0000000000001020408102040800102040802
:1000F0001020010204081020040404040404040471
:1001000002020202020203030303030300000000D1
:1001100023002600290000000000250028002B00F5
:1001200000000000240027002A008F01F9015A0373
:10013000E8036604AB0555074D0D11241FBECFEF34
:10014000D8E0DEBFCDBF12E0A0E0B1E0E8ECFFE216
:1001500002C005900D92A230B107D9F723E0A2E0CA
:10016000B2E001C01D92A03FB207E1F711E0CAE37F
:10017000D1E004C02297FE010E946D11CA32D1075E
:10018000C9F772D70C94E2173BCFCF92DF92EF9270
:10019000FF920F931F93E82FF92F05C0015011090B
:1001A0002109310961F1908196239417B9F305C0B3
:1001B000015011092109310911F1908196239413FD
:1001C000F7CFC12CD12CE12CF12C0AC08FEFC81A2B
:1001D000D80AE80AF80A0C151D052E053F0579F026
:1001E00080818623841791F36C2D7D2D8E2D9F2D7C
:1001F0001F910F91FF90EF90DF90CF90089560E0F6
:1002000070E080E090E01F910F91FF90EF90DF9001
:10021000CF90089561E08DE00E94A90968EE73E037
:1002200080E090E09AD760E08DE00E94A90966E93D
:1002300070E080E090E091C7CF93DF93EC0161E044
:1002400088810E94700960E08881DF91CF910C94D1
:10025000A909CF93DF93EC0161E088810E94A9098D
:1002600068EC70E080E090E078D760E088810E94E0
:10027000A90968EC70E080E090E06FD761E08881C8
:100280000E94A90968EC70E080E090E066D760E029
:1002900088810E94A90968EC70E080E090E0DF911D
:1002A000CF915BC7CF93DF9300D0CDB7DEB7898303
:1002B0009A83B0DF89819A81CCDF64EF71E080E0BE
:1002C00090E00F900F90DF91CF9147C7CF93DF93CE
:1002D000EC0161E088810E94A90962E370E080E09E
:1002E00090E03BD760E088810E94A90962E370E05A
:1002F00080E090E032D761E088810E94A90962E342
:1003000070E080E090E029D760E088810E94A90930
:100310006AEF70E080E090E0DF91CF911EC78BE044
:1003200090E0909303028093020208950F931F932D
:10033000CF93DF93EC0187E292E00E94600A40E0F5
:1003400060E087E292E00E94650A8E010D5F1F4F18
:100350006FE071E0C8010E941C15B80187E292E0CD
:1003600025D641E060E087E292E00E94650A80E0E5
:1003700090E020E2FE01E80FF91F238B0196803107
:100380009105C1F76FE171E080E692E013D6188223
:10039000198264EF71E080E090E0DF91CF911F91CE
:1003A0000F91DBC60895CF93DF93EC0187E292E0D3
:1003B0000E94600A40E060E087E292E00E94650AE5
:1003C000BE016D5F7F4F87E292E0F0D541E060E0D3
:1003D00087E292E00E94650ABE016D5E7F4F87E270
:1003E00092E0E4D564E670E080E090E0DF91CF91A8
:1003F000B4C68F92AF92CF92EF920F931F921F923B
:1004000083E08F9387E0882E96E0A92E25E0C22E08
:1004100034E0E32E00E021E042E06FE387E292E087
:100420000E949D0B10920402109205021092060287
:100430000F900F900F900F91EF90CF90AF908F9003
:1004400008956FE271E080E692E0B4D520E042E0EA
:1004500060E187E292E00E94220C87E292E00E9433
:10046000480A64E670E080E090E077D687E292E0A8
:100470000E94500A64E670E080E090E06ED687E269
:1004800092E00E94480A64E670E080E090E065D661
:1004900087E292E00E94500A64E670E080E090E01B
:1004A0005CD687E292E0F4D787E292E00E94600A8D
:1004B00040E060E087E292E00E94650A66E471E055
:1004C00087E292E073D541E060E087E292E0FDD7F9
:1004D00065E571E087E292E069C50F931F93CF93C2
:1004E000DF93EC018A81813019F4CE015CDF1A823E
:1004F00080E692E038D3892B09F44EC064E670E0C0
:1005000080E090E02AD611E000E280E692E02BD372
:10051000181619060CF040C080E692E03DD3998190
:10052000903124F0198298819F5F9883988192304E
:100530000CF01883998191111FC041E050E028818F
:10054000222311F040E050E064E0440F551F6A950B
:10055000E1F74C0F5D1F20E030E0FE01E20FF31FDA
:100560006389DA01A20FB31F13966C93038B2F5F7D
:100570003F4F2031310589F72881FE0130E1230208
:10058000E00DF11D1124E90FF11D97FDFA9583830C
:100590009F5F99831A83B9CFDF91CF911F910F91FC
:1005A00008950895AF92BF92CF92DF92EF92FF929B
:1005B0000F931F93CF93DF93EC016881798184E4DB
:1005C00092E00E946810888145D6BC01882777FD9B
:1005D0008095982F1F921F921F9224EB2F93A12C8E
:1005E000B12C6501EE24EA9413E0F12E00E010E056
:1005F00020E030E0A901EED4709343026093420200
:100600000F900F900F900F90DF91CF911F910F914E
:10061000FF90EF90DF90CF90BF90AF9008956091E2
:1006200042027091430284E492E00E94AE106FE0B7
:1006300070E080E090E091C5109243021092420277
:100640006091420270914302653B71059CF484E421
:1006500092E00E94AE106FE070E080E090E07DD507
:1006600080914202909143020196909343028093BD
:100670004202E6CF84EB90E09093430280934202E3
:10068000609142027091430277FD0FC084E492E0D2
:100690000E94AE106FE070E080E090E05ED5809147
:1006A0004202909143020197E7CF089584E492E0DB
:1006B0000C946D1084E492E00E94D00F88E090E0EA
:1006C0009093410280934002089560E0FC0186818E
:1006D00007C6CF93DF93EC018E8170D69D838C8308
:1006E000019719F48A81B6D502C08FEF9FEF9983E5
:1006F000888368EC70E080E090E0DF91CF912DC5B9
:10070000CF92DF92EF92FF92FC0160817181882786
:1007100077FD8095982F0E948A129B01AC0160E0C2
:1007200070E080E894E40E94EF1120E030E040E8BF
:100730005FE30E948A119B01AC0160E070E48CE1F0
:1007400096E40E94EF110E941B136B017C0129E5C6
:1007500037E44CEB53E30E945B13A70196010E9420
:100760005B1323E73FE745E759E30E948B11A7019D
:1007700096010E945B132BEE3FEF43E95AE30E9480
:100780008B119B01AC0160E070E080E89FE30E9468
:10079000EF11FF90EF90DF90CF900895B1DF23E34A
:1007A00033E948E853E40C948A11F8DF20E030E0A4
:1007B00040E151E40E945B1320E030E040EA50E465
:1007C0000E94EF1120E030E040E052E40C948B11E5
:1007D00080E290E053D4909354028093530281E1DD
:1007E00090E090934A028093490289E090E09093D0
:1007F0004E0280934D020895CF93DF93EC0161E0A8
:1008000088816ED560E08A81DF91CF9169C50F93B1
:100810001F93CF93DF93EC0160E088819AD585E048
:1008200090E0D2D461E0888194D58AE090E0CCD485
:1008300060E088818ED560E08A8152D520E432E480
:100840004FE050E061E08A81E1D5EB01182F092FDC
:1008500022E030E040E050E00E944F11CA01B901AF
:100860000E948A122DEC3CEC48EE51E40E94EF11FC
:100870000E9457129F938F937F936F930F931F93B1
:10088000DF93CF9385E691E09F938F9380915A02F7
:100890008F93809159028F930E9423156091590282
:1008A00070915A0280E692E085D38DB79EB70C9680
:1008B0000FB6F8949EBF0FBE8DBF6AEF70E080E068
:1008C00090E0DF91CF911F910F9147C482E390E0B8
:1008D000D5D390935A02809359028CE090E0909384
:1008E0005602809355028DE090E0909358028093D9
:1008F0005702089526E040E855E260E070E080E6A7
:1009000092E011D269E771E080E692E053D360E0B3
:1009100080910C01E5D482E092E08EDC84E092E0EC
:1009200090DD85E592E068DF87E492E0CEDE80E44A
:1009300092E037CE8F929F92AF92BF92CF92DF928A
:10094000EF92FF9280910C0139D590935F028093D2
:100950005E020197C9F580915E0290915F02019756
:1009600059F480910C012AD590935F0280935E0226
:1009700082E092E0ABDCEFCF80910A0190910B0115
:10098000019690930B0180930A019F938F9386E8C1
:1009900091E09F938F9380915C028F9380915B0293
:1009A0008F930E94231560915B0270915C0280E638
:1009B00092E000D381E080935D020F900F900F9042
:1009C0000F900F900F9002C010925D02E0910A010B
:1009D000F0910B01E730F10508F0B0C0EC5CFF4F7F
:1009E0000C946B1182E092E0FF90EF90DF90CF903B
:1009F000BF90AF909F908F9055CC80915D028130D9
:100A000019F484E092E092DC84E092E0FF90EF90B1
:100A1000DF90CF90BF90AF909F908F905ECD8091F0
:100A20005D02813019F484E092E0BCDC85E592E05F
:100A3000FF90EF90DF90CF90BF90AF909F908F90FE
:100A4000E6CE87E492E045DE87E492E0AEDE0E94E7
:100A500057127F936F938DE991E09F938F9387E077
:100A600092E09F938F930E94231587E492E096DE95
:100A70004B015C0187E492E043DE6B017C01C50120
:100A8000B4010E9457127F936F93C701B6010E9471
:100A900057127F936F9387EA91E09F938F9387E13B
:100AA00092E09F938F930E9423158DB79EB70E9669
:100AB0000FB6F8949EBF0FBE8DBF84E092E0FF900A
:100AC000EF90DF90CF90BF90AF909F908F906BCCC6
:100AD00080915D02813019F480E492E063DD80E46E
:100AE00092E0FF90EF90DF90CF90BF90AF909F90FB
:100AF0008F9095CD80915D02813031F480E492E059
:100B0000D5DD80E492E04EDD80E492E0FF90EF904E
:100B1000DF90CF90BF90AF909F908F908DCD8091C0
:100B20005D02813079F480E492E0FF90EF90DF90F5
:100B3000CF90BF90AF909F908F90B8CD10920B0147
:100B400010920A01FF90EF90DF90CF90BF90AF908E
:100B50009F908F90089580E290E090D290935C02F5
:100B600080935B020895FC01818D228D90E0805C72
:100B70009F4F821B91098F7399270895FC01918DD6
:100B8000828D981731F0828DE80FF11D858D90E0F0
:100B900008958FEF9FEF0895FC01918D828D981736
:100BA00061F0828DDF01A80FB11D5D968C91928D51
:100BB0009F5F9F73928F90E008958FEF9FEF08954E
:100BC0008CE497E0892B41F080E090E0892B21F0C4
:100BD00063D181110C9400000895FC01848DDF0124
:100BE000A80FB11DA35ABF4F2C91848D90E00196A0
:100BF0008F739927848FA689B7892C93A089B1898F
:100C00008C9180648C93938D848D981306C0028898
:100C1000F389E02D80818F7D80830895CF93DF93CA
:100C2000EC01888D8823C1F0EA89FB89808185FDEC
:100C300005C0A889B9898C9186FD0EC00FB607FC46
:100C4000F5CF808185FFF2CFA889B9898C9185FF86
:100C5000EDCFCE01C2DFE8CFDF91CF910895CF92E3
:100C6000DF92FF920F931F93CF93DF931F92CDB725
:100C7000DEB76C0181E0D60158968C9358975B964D
:100C80009C915B975C968C915C97981307C05096EB
:100C9000ED91FC915197808185FD2DC0F601038D6A
:100CA00010E00F5F1F4F0F731127F02EF601848D98
:100CB000F81210C00FB607FCF9CFD6015096ED918F
:100CC000FC915197808185FFF1CFC601698385DF53
:100CD0006981ECCF838DE80FF11DE35AFF4F6083EC
:100CE000D6015B960C935B975296ED91FC915397CE
:100CF000808180620CC0D6015696ED91FC91579789
:100D000060835096ED91FC9151978081806480833F
:100D100081E090E00F90DF91CF911F910F91FF90B4
:100D2000DF90CF900895BF92CF92DF92EF92FF9223
:100D3000CF93DF93EC016A017B01B22EE889F98938
:100D400082E08083411581EE580761057105A1F0AD
:100D500060E079E08DE390E0A70196010E942D11FB
:100D600021503109410951095695479537952795E5
:100D7000211580E1380798F0E889F989108260E848
:100D800074E88EE190E0A70196010E942D11215098
:100D90003109410951095695479537952795EC85B5
:100DA000FD853083EE85FF852083188EEC89FD89D3
:100DB000B082EA89FB89808180618083EA89FB892E
:100DC000808188608083EA89FB8980818068808354
:100DD000EA89FB8980818F7D8083DF91CF91FF90AD
:100DE000EF90DF90CF90BF9008951F920F920FB6B3
:100DF0000F9211242F938F939F93EF93FF93E09182
:100E00007002F09171028081E0917602F091770298
:100E100082FD12C09081809179028F5F8F73209143
:100E20007A02821751F0E0917902F0E0E05AFD4F2A
:100E3000958F8093790201C08081FF91EF919F91FE
:100E40008F912F910F900FBE0F901F9018951F92AA
:100E50000F920FB60F9211242F933F934F935F93EE
:100E60006F937F938F939F93AF93BF93EF93FF9372
:100E700080E692E0B2DEFF91EF91BF91AF919F913A
:100E80008F917F916F915F914F913F912F910F9033
:100E90000FBE0F901F90189580E692E064DE21E06F
:100EA000892B09F420E0822F08951092630210929A
:100EB000620288EE93E0A0E0B0E080936402909339
:100EC0006502A0936602B093670285EB91E0909370
:100ED00061028093600285EC90E090936D028093B4
:100EE0006C0284EC90E090936F0280936E0280EC31
:100EF00090E0909371028093700281EC90E0909367
:100F000073028093720282EC90E09093750280935A
:100F1000740286EC90E090937702809376021092B0
:100F2000790210927A0210927B0210927C0208954C
:100F3000CF92DF92EF92FF920F931F93CF93DF93A5
:100F40007C016A01EB0100E010E00C151D0571F059
:100F50006991D701ED91FC910190F081E02DC701DD
:100F60000995892B19F00F5F1F4FEFCFC801DF9153
:100F7000CF911F910F91FF90EF90DF90CF90089548
:100F80006115710581F0DB010D900020E9F7AD01DD
:100F900041505109461B570BDC01ED91FC91028039
:100FA000F381E02D099480E090E00895E9CF61ECB1
:100FB00071E0E6CF0F931F93CF93DF93EC01E0DF57
:100FC0008C01CE01F4DF800F911FDF91CF911F9133
:100FD0000F9108954F925F926F927F92AF92BF925E
:100FE000CF92DF92EF92FF920F931F93CF93DF93F5
:100FF000CDB7DEB729013A01621B730B840B950B49
:1010000029893A894B895C892A193B094C095D0970
:10101000298B3A8B4B8B5C8B9B01AC0169897A895C
:101020008B899C890E941211E418F508060917099A
:10103000A80197010E944F112A0D3B1D4C1D5D1DFB
:10104000CA01B901DF91CF911F910F91FF90EF90ED
:10105000DF90CF90BF90AF907F906F905F904F9058
:1010600008950E9418150895BAD0FDDF43DCC0EE44
:10107000D5E060DC2097E9F3A3DDFBCF0C94F113FE
:101080001F920F920FB60F9211242F933F938F93BD
:101090009F93AF93BF938091FE029091FF02A09126
:1010A0000003B09101033091FD0223E0230F2D379F
:1010B00020F40196A11DB11D05C026E8230F02965C
:1010C000A11DB11D2093FD028093FE029093FF02AB
:1010D000A0930003B0930103809102039091030356
:1010E000A0910403B09105030196A11DB11D809349
:1010F000020390930303A0930403B0930503BF91ED
:10110000AF919F918F913F912F910F900FBE0F90B4
:101110001F9018953FB7F8948091020390910303B4
:10112000A0910403B091050326B5A89B05C02F3FED
:1011300019F00196A11DB11D3FBF6627782F892F99
:101140009A2F620F711D811D911D42E0660F771F5E
:10115000881F991F4A95D1F708958F929F92AF9259
:10116000BF92CF92DF92EF92FF926B017C01D2DFB0
:101170004B015C01C114D104E104F104E1F072D12E
:10118000C9DF681979098A099B09683E734081059E
:10119000910580F321E0C21AD108E108F10888EE38
:1011A000880E83E0981EA11CB11CC114D104E10477
:1011B000F10431F7DFCFFF90EF90DF90CF90BF9039
:1011C000AF909F908F9008958230910538F0880FEE
:1011D000991F880F991F05970197F1F70895789443
:1011E00084B5826084BD84B5816084BD85B582602C
:1011F00085BD85B5816085BDEEE6F0E080818160CA
:101200008083E1E8F0E010828081826080838081C9
:1012100081608083E0E8F0E0808181608083E1EBA1
:10122000F0E0808184608083E0EBF0E08081816089
:101230008083EAE7F0E0808184608083808182603F
:101240008083808181608083808180688083109228
:10125000C10008958E3008F08E50877020910E01E5
:1012600090E4299F90011124822B80937C0080912F
:101270007A00806480937A0080917A0086FDFCCFAA
:10128000809178002091790090E0922B089583302E
:1012900081F028F4813099F08230A1F008958730F0
:1012A000A9F08830B9F08430D1F4809180008F7D2E
:1012B00003C0809180008F7780938000089584B56B
:1012C0008F7702C084B58F7D84BD08958091B00072
:1012D0008F7703C08091B0008F7D8093B000089518
:1012E000CF93DF9390E0FC01EC51FF4F2491FC0180
:1012F000E850FF4F8491882349F190E0880F991FAF
:10130000FC01E05EFE4FA591B4918A5E9E4FFC0108
:10131000C591D4919FB7611108C0F8948C91209524
:1013200082238C93888182230AC0623051F4F8941E
:101330008C91322F309583238C938881822B8883E4
:1013400004C0F8948C91822B8C939FBFDF91CF9136
:1013500008950F931F93CF93DF931F92CDB7DEB7FE
:10136000282F30E0F901E053FF4F8491F901EC514F
:10137000FF4F1491F901E850FF4F04910023C1F091
:10138000882319F0698383DF6981E02FF0E0EE0F95
:10139000FF1FEA5EFE4FA591B4919FB7F8948C9120
:1013A000611103C01095812301C0812B8C939FBFD5
:1013B0000F90DF91CF911F910F910895CF93DF93FD
:1013C000282F30E0F901E053FF4F8491F901EC51EF
:1013D000FF4FD491F901E850FF4FC491CC2389F01D
:1013E000811155DFEC2FF0E0EE0FFF1FE45FFE4FA1
:1013F000A591B4912C912D2381E090E021F480E01F
:1014000002C080E090E0DF91CF9108950F931F9389
:10141000762F90E0FC01EC51FF4F6491FC01E85005
:10142000FF4FE4917111762FF0E0EE0FFF1FE45FA4
:10143000FE4F8591949189019A013F70472F0E9438
:10144000C500611571058105910531F06F5F7F4F12
:101450008F4F9F4F9F7003C060E070E0CB011F91E2
:101460000F910895089508950895DC01ED91FC9180
:101470000284F385E02D41E0099581E090E0089534
:10148000FC011382128226ED31E03183208308951E
:10149000DC01ED91FC910084F185E02D6FEF099462
:1014A000DC01ED91FC910084F185E02D60E0099470
:1014B000DC01ED91FC910284F385E02D40E009947C
:1014C00061E0F6DF80ED97E07FCECF93DF93CDB77D
:1014D000DEB728970FB6F894DEBF0FBECDBF1D82D2
:1014E00020E42E8334E13F8334E5388719822A8350
:1014F00020E12B8320E52C83FC012781421710F08B
:101500004FEF420FFC01308550E0FE01E40FF51F64
:10151000303121F4243011F4218101C02581260FBE
:101520002068622F28960FB6F894DEBF0FBECDBF9D
:10153000DF91CF91BDCFFC016581262F24602583EB
:101540006C60B6CFCF93DF93EC01423018F08C8102
:1015500088608C834F836887222329F0413019F4F7
:101560008C8184608C8364E670E080E090E0F5DD3F
:101570006C8164FD2EC0E881F9810284F385E02D41
:1015800042E063E0CE01099584E991E11DDEE88146
:10159000F9810284F385E02D42E063E0CE010995F4
:1015A00086E990E011DEE881F9810284F385E02D7F
:1015B00042E063E0CE01099586E990E005DEE8812E
:1015C000F9810284F385E02D42E062E0CE010995C5
:1015D00011C06062CE016CDF84E991E1F5DD6C81C0
:1015E0006062CE0165DF86E990E0EEDD6C816062CD
:1015F000CE015EDF86E990E0E7DD6C816062CE01BE
:1016000057DF8CE390E0E0DD84E08D83CE0193DF53
:10161000CE0156DF82E08E8366E0CE0149DFCE0147
:10162000DF91CF9135CF21E001C0220F6A95EAF713
:10163000DC011C962C931C971A965C934E93199779
:10164000ED91FC910084F185E02D60E00994FC01AE
:101650002485222391F081859285009719F46111E8
:1016600005C006C0019721F4611102C0258701C0A1
:1016700015866585CF010E9631C108950F931F938E
:10168000CF93DF93EC018C01025F1F4F6B85C80184
:101690000FD1019751F461E0C801F4D01C8260E0E1
:1016A000C8011CD181E090E002C080E090E0DF91B1
:1016B000CF911F910F9108958F92AF92CF92EF9299
:1016C0000F93CF93DF93CDB7DEB7FC01638714860A
:1016D00015861286118681E0982F01C0990F4A95D0
:1016E000EAF7928B982F01C0990F2A95EAF7938B0E
:1016F000982F01C0990F0A95EAF7948B982F01C093
:10170000990FEA94EAF7958B982F01C0990FCA9424
:10171000EAF7968B982F01C0990FAA94EAF7978B56
:1017200001C0880F8A94EAF7808FDF91CF910F91E3
:10173000EF90CF90AF908F9008954F925F926F92FD
:101740007F928F92AF92CF92EF920F931F93CF938E
:10175000DF9300D01F92CDB7DEB73C011A894B88CA
:101760005C882B834A8369838BDE86EE91E0F301EC
:1017700091838083C3010E967ED02B814A8169813B
:10178000C3019ADFA201612FC3010F900F900F9048
:10179000DF91CF911F910F91EF90CF90AF908F90ED
:1017A0007F906F905F904F903ECFFF920F931F936B
:1017B000CF93DF93EC01F62E8C01025F1F4F6A89F5
:1017C0006F29C8018BD06A8960956F21C801DF91AC
:1017D000CF911F910F91FF9081C020E030E050E049
:1017E00060FF05C0FC01E20FF31F7589572B66955A
:1017F0002F5F3F4F2430310599F7413011F4FC0140
:101800004489FC016585652B642BCFCF0F931F9313
:10181000CF93DF93EC01142F062F0F70423011F499
:1018200040E009C070E084E0759567958A95E1F71E
:10183000CE01D3DF412F602FCE01DF91CF911F91D9
:101840000F91CBCF0F931F93CF93DF9300D01F92B5
:10185000CDB7DEB78C012B834A8369830FDF2B81E1
:101860004A816981C8010F900F900F90DF91CF914D
:101870001F910F9167CEFC0112828FEF818310823E
:1018800013820895FC018381882331F0611103C024
:101890008FEF818308951182089586E093E0DFD071
:1018A00086E093E0F8D091E0811190E0892F0895CF
:1018B000CF93DF93EC016A8386E093E0C7D06A811F
:1018C000CE01EBDF8B83882321F086E093E031D0DB
:1018D00088838B8190E0DF91CF910895CF93DF9340
:1018E000EC018B81882391F0898180958623888300
:1018F0006A8186E093E0B3D0688186E093E068D0A7
:1019000086E093E0C8D0282F30E002C020E030E02D
:1019100081E090E0232B11F080E090E0DF91CF9107
:1019200008958091360390E020913703821B91093E
:1019300008952091370380913603281750F4E22F41
:10194000F0E0E85CFC4F808190E02F5F209337034C
:1019500008958FEF9FEF0895E0913703809136034C
:10196000E81730F4F0E0E85CFC4F808190E00895E7
:101970008FEF9FEF08950895CF92DF92EF92FF923D
:101980000F931F93CF93DF937C01CB018A012091AA
:101990001203222389F0EB016B01C40ED51ECC1576
:1019A000DD0561F06991D701ED91FC910190F08125
:1019B000E02DC7010995F3CF642FE5D0C801DF9171
:1019C000CF911F910F91FF90EF90DF90CF900895EE
:1019D000CF93DF931F92CDB7DEB7698320911203B7
:1019E0002223D1F020911303203240F021E030E097
:1019F000FC013383228380E090E014C080911403C3
:101A0000E82FF0E0EB5EFC4F998190838F5F80932D
:101A100014038093130304C061E0CE010196B3D098
:101A200081E090E00F90DF91CF910895FC01138247
:101A3000128248EE53E060E070E044835583668391
:101A4000778386EF91E09183808308951092370326
:101A500010923603109214031092130321C081E0F8
:101A600080931203609335031092140310921303B2
:101A700008950F93062F21E04091130365E173E071
:101A80008091350329D01092140310921303109201
:101A900012030F91089561E0ECCF86E093E0C6CF8A
:101AA0001092C50381E08093C3031092C20361E0EA
:101AB00082E14FDC61E083E14CDCE9EBF0E0808126
:101AC0008E7F808380818D7F808388E48093B800BF
:101AD00085E48093BC0008950F93413208F04AC01A
:101AE0009091C5039111FCCF92E09093C5030093B0
:101AF000C3039FEF9093580310929D0340939C0360
:101B0000FB016EE973E0DB019A2F961B941718F422
:101B100091919D93F9CF1092C4039091C403880FC3
:101B2000892B8093C4038091C203813061F41092A9
:101B3000C2038091C4038093BB008091BC0083FDED
:101B4000F8CF85EC01C085EE8093BC00222321F004
:101B50008091C5038230E1F3809158038F3F61F09B
:101B600080915803803251F080915803803341F4C2
:101B700083E007C081E005C080E003C082E001C0CF
:101B800084E00F910895613298F42091C5032430C8
:101B900089F460937A03FC018CE793E0DC012A2F3F
:101BA000281B261718F421912D93F9CF80E0089572
:101BB00081E0089582E0089585ED8093BC008091D6
:101BC000BC0084FDFCCF1092C503089585EC809382
:101BD000BC001092C50308951F920F920FB60F928A
:101BE00011242F933F934F935F936F937F938F9322
:101BF0009F93AF93BF93EF93FF938091B900887F3A
:101C0000803609F49DC070F5883209F45CC090F408
:101C1000803109F455C038F4882309F4F3C08830C2
:101C200009F44EC0F2C0883109F44DC0803209F485
:101C30005EC0EBC0803409F469C050F4803309F40D
:101C400056C0883309F0E1C080935803BFDFDDC080
:101C5000803509F44FC0883509F45DC0883409F037
:101C6000D4C0D2C0883909F4C3C0A8F4883709F4B5
:101C700067C038F4883609F463C0803709F460C05F
:101C8000C4C0883809F4B4C0803909F45FC0803812
:101C900009F0BBC05BC0803B09F482C038F4803AD5
:101CA00009F466C0883A09F47BC0AFC0803C09F4EF
:101CB000A3C0883C09F4A0C0883B09F486C0A5C035
:101CC0008091C40310C090919D0380919C0398174C
:101CD00070F5E0919D0381E08E0F80939D03F0E00D
:101CE000E256FC4F80818093BB0085EC82C08093DC
:101CF00058038AC0E0919D0381E08E0F80939D037D
:101D00008091BB00F0E0E256FC4F808390919D03F0
:101D100080919C036AC0E0919D0381E08E0F8093C7
:101D20009D038091BB00F0E0E256FC4F80838091E0
:101D3000C303811169C081E08093C20384EA5DC05E
:101D400083E08093C50310925903CFCF809159034C
:101D5000803208F04DC0E091590381E08E0F8093EE
:101D600059038091BB00F0E0E65AFC4F8083BDCF61
:101D70002DDF80915903803230F4E0915903F0E077
:101D8000E65AFC4F10826091590370E0E091BE0367
:101D9000F091BF038AE593E009951092590335C08D
:101DA00084E08093C50310927B0310927A03E09144
:101DB000C003F091C103099580917A03811105C098
:101DC00081E080937A0310927C03E0917B0381E0B1
:101DD0008E0F80937B03F0E0E458FC4F808180936A
:101DE000BB0090917B0380917A03981708F47DCF14
:101DF00085E88093BC0009C085EC8093BC001092FC
:101E0000C50303C010925803D7DEFF91EF91BF9135
:101E1000AF919F918F917F916F915F914F913F9182
:101E20002F910F900FBE0F901F9018951F920F9239
:101E30000FB60F9211242F933F934F935F936F939D
:101E40007F938F939F93AF93BF93EF93FF93809173
:101E5000C70387FF05C010928500109284001AC046
:101E60002091C703332727FD30958091C60390E06A
:101E7000281739077CF48091C703992787FD90952F
:101E8000FC01EE0FFF1FE80FF91FE853FC4F8081A4
:101E900086FD15C08091C7038F5F8093C703209193
:101EA000C703332727FD30958091C60390E028179C
:101EB0003907B4F48091C7038C3054F111C080917C
:101EC000C703992787FD9095FC01EE0FFF1FE80FD0
:101ED000F91FE853FC4F808160E08F733ADADACF64
:101EE0008091840090918500049680349C4918F478
:101EF00080E49CE905C0809184009091850004965F
:101F000090938900809388008FEF8093C70337C038
:101F100020918400309185008091C703992787FD27
:101F20009095FC01EE0FFF1FE80FF91FE853FC4FDF
:101F300081819281820F931F909389008093880002
:101F40008091C703992787FD9095FC01EE0FFF1F35
:101F5000E80FF91FE853FC4F808186FF10C0809185
:101F6000C703992787FD9095FC01EE0FFF1FE80F2F
:101F7000F91FE853FC4F808161E08F73EAD9FF912C
:101F8000EF91BF91AF919F918F917F916F915F91F1
:101F90004F913F912F910F900FBE0F901F9018956A
:101FA0002091C6032C30A0F431E0320F3093C603E9
:101FB000FC012083822F90E0FC01EE0FFF1FE80F51
:101FC000F91FE853FC4F88EB9BE0928381830895CF
:101FD0002FEFFC0120830895DF92EF92FF920F9381
:101FE0001F93CF93DF93EC01D62E7A01890188816C
:101FF0008C3008F064C061E08D2D72D98881A82FE3
:10200000B0E0FD01EE0FFF1FEA0FFB1FE853FC4F8E
:102010002D2D2F739081907C922B908360E272E043
:102020006E197F0977FF02C06D5F7F4F75956795C9
:1020300075956795698340E659E0401B510B57FF42
:1020400002C04D5F5F4F55954795559547954A831B
:102050006CE0F7D09CE0899FB001112420E030E0D3
:10206000A901460F571FFA01EE0FFF1FE40FF51FDE
:10207000E853FC4F908196FD16C02F5F3F4F2C30E8
:10208000310571F781110FC01092800082E08093BA
:1020900081001092850010928400B19A80916F00A7
:1020A000826080936F00888190E0FC01EE0FFF1F3B
:1020B000E80FF91FE853FC4F80818064808388819A
:1020C000DF91CF911F910F91FF90EF90DF900895D6
:1020D00020E639E040E252E07FCFFC01808190E0D1
:1020E000FC01EE0FFF1FE80FF91FE853FC4F808142
:1020F0008F7B80830895FC0180818C3070F5918105
:1021000028E830E0291B310997FD3395220F331F52
:10211000220F331F621773077CF0928128E532E0AB
:10212000291B310997FD3395220F331F220F331FCF
:10213000621773070CF49B0122503109220F331FE1
:102140004FB7F89490E0FC01EE0FFF1FE80FF91F66
:10215000E853FC4F328321834FBF08954F925F9223
:102160006F927F92AF92BF92CF92DF92EF92FF92E7
:102170000F931F93CF93DF93EC01603282E07807D7
:102180000CF040C077FD06C0653B71052CF064EB98
:1021900070E002C060E070E0898128E830E0281B30
:1021A000310987FD3395220F331F220F331F590149
:1021B000CC24B7FCC094DC2C882777FD8095982F21
:1021C0002A8148E552E0421B510927FD5395440FEF
:1021D000551F440F551F2A01662457FC6094762C26
:1021E0007F926F925F924F9214EBE12EF12C00E000
:1021F00010E020E030E0A9010E94EA070F900F9064
:102200000F900F90CE01DF91CF911F910F91FF9012
:10221000EF90DF90CF90BF90AF907F906F905F90E6
:102220004F9069CFDB018F939F935BD0BF91AF91AC
:10223000A29F800D911DA39F900DB29F900D112420
:102240000895991B79E004C0991F961708F0961B12
:10225000881F7A95C9F780950895A1E21A2EAA1BC6
:10226000BB1BFD010DC0AA1FBB1FEE1FFF1FA21746
:10227000B307E407F50720F0A21BB30BE40BF50B43
:10228000661F771F881F991F1A9469F760957095CC
:10229000809590959B01AC01BD01CF010895052E5D
:1022A00097FB16F400940FD057FD05D0D6DF07FC3E
:1022B00002D046F408C050954095309521953F4F87
:1022C0004F4F5F4F089590958095709561957F4F22
:1022D0008F4F9F4F0895EE0FFF1F0590F491E02D53
:1022E000099409D0A59F900DB49F900DA49F800DD7
:1022F000911D11240895A29FB001B39FC001A39F17
:10230000700D811D1124911DB29F700D811D11242E
:10231000911D08955058BB27AA270ED04DC13ED11C
:1023200030F043D120F031F49F3F11F41EF433C15B
:102330000EF4E095E7FB29C1E92F4FD180F3BA17DE
:10234000620773078407950718F071F49EF567C15B
:102350000EF4E0950B2EBA2FA02D0B01B9019001C0
:102360000C01CA01A0011124FF27591B99F0593F04
:1023700050F4503E68F11A16F040A22F232F342F4C
:102380004427585FF3CF469537952795A795F0409A
:102390005395C9F77EF41F16BA0B620B730B840BAF
:1023A000BAF09150A1F0FF0FBB1F661F771F881F67
:1023B000C2F70EC0BA0F621F731F841F48F48795BF
:1023C00077956795B795F7959E3F08F0B3CF9395AE
:1023D000880F08F09927EE0F9795879508950CD0F0
:1023E000EBC0E3D040F0DAD030F021F45F3F19F0D9
:1023F000CCC0511115C1CFC0F0D098F39923C9F3C7
:102400005523B1F3951B550BBB27AA2762177307FA
:10241000840738F09F5F5F4F220F331F441FAA1FAE
:10242000A9F333D00E2E3AF0E0E830D0915050406E
:10243000E695001CCAF729D0FE2F27D0660F771F1C
:10244000881FBB1F261737074807AB07B0E809F0FE
:10245000BB0B802DBF01FF2793585F4F2AF09E3F93
:10246000510568F092C0DCC05F3FECF3983EDCF3AE
:10247000869577956795B795F7959F5FC9F7880F0C
:10248000911D9695879597F90895E1E0660F771F5E
:10249000881FBB1F621773078407BA0720F0621BEF
:1024A000730B840BBA0BEE1F88F7E095089504D0E8
:1024B0006894B111B5C0089598D088F09F5790F0F6
:1024C000B92F9927B751A0F0D1F0660F771F881F59
:1024D000991F1AF0BA95C9F712C0B13081F09FD098
:1024E000B1E008959CC0672F782F8827B85F39F036
:1024F000B93FCCF3869577956795B395D9F73EF4B8
:1025000090958095709561957F4F8F4F9F4F08955F
:10251000E89409C097FB3EF490958095709561957D
:102520007F4F8F4F9F4F9923A9F0F92F96E9BB2733
:102530009395F695879577956795B795F111F8CFAF
:10254000FAF4BB0F11F460FF1BC06F5F7F4F8F4F1A
:102550009F4F16C0882311F096E911C0772321F010
:102560009EE8872F762F05C0662371F096E8862FA8
:1025700070E060E02AF09A95660F771F881FDAF7FF
:10258000880F9695879597F9089597F99F6780E842
:1025900070E060E008959FEF80EC089500240A94B5
:1025A0001616170618060906089500240A9412162E
:1025B0001306140605060895092E0394000C11F461
:1025C000882352F0BB0F40F4BF2B11F460FF04C00E
:1025D0006F5F7F4F8F4F9F4F089557FD9058440F67
:1025E000551F59F05F3F71F04795880F97FB991F72
:1025F00061F09F3F79F0879508951216130614062F
:10260000551FF2CF4695F1DF08C0161617061806BB
:10261000991FF1CF86957105610508940895E89496
:10262000BB2766277727CB0197F908950EF0A6C040
:10263000B2CF6894AACFD9DFC8F39923D1F3C6F3F8
:10264000DF93CF931F930F93FF92C92FDD2788232A
:102650002AF02197660F771F881FDAF720E030E015
:1026600040E85FEB9FE3883920F0803E30F0219610
:102670008F7751DEE6E7F0E003C04DDEE3EAF0E0FD
:102680008BD08B01BE01EC01FB2E6F577109759544
:10269000771F880B990B3EDF28E132E741E35FE3C8
:1026A00016D0AF2D9801AE01FF900F911F91CF91E1
:1026B000DF9142DE81CF0BD07FCF70DF28F075DF56
:1026C00018F0952309F061CF66CF1124A9CF85DFDB
:1026D000A0F3959FD1F3950F50E0551F629FF00135
:1026E000729FBB27F00DB11D639FAA27F00DB11D8E
:1026F000AA1F649F6627B00DA11D661F829F222717
:10270000B00DA11D621F739FB00DA11D621F839F9D
:10271000A00D611D221F749F3327A00D611D231F73
:10272000849F600D211D822F762F6A2F11249F57C1
:1027300050408AF0E1F088234AF0EE0FFF1FBB1FE4
:10274000661F771F881F91505040A9F79E3F510583
:1027500070F01BCF65CF5F3FECF3983EDCF38695BE
:1027600077956795B795F795E7959F5FC1F7FE2B2E
:10277000880F911D9695879597F908959F3F31F0A1
:10278000915020F4879577956795B795880F911D9F
:102790009695879597F90895DF93CF931F930F939D
:1027A000FF92EF92DF927B018C01689405C0DA2ED4
:1027B000EF018DDFFE01E894A591259135914591BA
:1027C0005591AEF3EF01B8DDFE019701A801DA944F
:1027D00079F7DF90EF90FF900F911F91CF91DF91EC
:1027E0000895CF93DF938230910510F482E090E05A
:1027F000E091EE03F091EF0320E030E0A0E0B0E0E4
:10280000309739F14081518148175907B8F048177E
:10281000590771F482819381109729F013969C9344
:102820008E9312972CC09093EF038093EE0327C0F2
:102830002115310531F04217530718F0A901DB01CA
:1028400001C0EF019A01BD01DF010280F381E02D9B
:10285000D7CF21153105F9F0281B390B243031056C
:1028600080F48A819B816115710521F0FB019383BE
:10287000828304C09093EF038093EE03FE013296AF
:1028800044C0FE01E20FF31F81939193225031095E
:10289000398328833AC02091EC033091ED03232B38
:1028A00041F420910201309103013093ED03209314
:1028B000EC0320910001309101012115310541F413
:1028C0002DB73EB74091040150910501241B350BF3
:1028D000E091EC03F091ED03E217F307A0F42E1B57
:1028E0003F0B2817390778F0AC014E5F5F4F241774
:1028F000350748F04E0F5F1F5093ED034093EC03F4
:102900008193919302C0E0E0F0E0CF01DF91CF919D
:102910000895CF93DF93009709F487C0FC013297A5
:1029200013821282C091EE03D091EF03209781F4BD
:1029300020813181280F391F8091EC039091ED03A4
:102940008217930779F5F093ED03E093EC036DC0E4
:10295000DE0120E030E0AE17BF0750F412964D9133
:102960005C9113979D014115510509F1DA01F3CFEF
:10297000B383A28340815181840F951F8A179B07DF
:1029800071F48D919C911197840F951F02969183FC
:10299000808312968D919C91139793838283211546
:1029A000310529F4F093EF03E093EE033EC0D90123
:1029B0001396FC93EE9312974D915D91A40FB51F62
:1029C000EA17FB0779F480819181840F951F0296A5
:1029D000D90111969C938E938281938113969C9337
:1029E0008E931297E0E0F0E08A819B81009719F0C6
:1029F000FE01EC01F9CFCE01029628813981820FC8
:102A0000931F2091EC033091ED032817390769F4E7
:102A1000309729F41092EF031092EE0302C0138254
:102A20001282D093ED03C093EC03DF91CF91089510
:102A300081E090E0F894C6C2FB01DC0101900D92A8
:102A40000020E1F70895AEE0B0E0E8E2F5E191C2E0
:102A50000D891E8986E08C831A8309838FEF9FE797
:102A60009E838D83AE01475E5F4F6F89788DCE0167
:102A7000019608D0EF81F885E00FF11F10822E96A5
:102A8000E4E093C2ACE0B0E0E7E4F5E164C27C01CD
:102A90006B018A01FC0117821682838181FFB0C11C
:102AA000CE0101964C01F7019381F60193FD8591CA
:102AB00093FF81916F01882309F49EC1853239F417
:102AC00093FD859193FF81916F01853221F4B701C8
:102AD00090E0B1D1E8CF512C312C20E02032A0F48D
:102AE0008B3269F030F4803259F0833269F420611E
:102AF0002CC08D3239F0803339F4216026C0226039
:102B0000246023C0286021C027FD27C030ED380F86
:102B10003A3078F426FF06C0FAE05F9E300D1124AB
:102B2000532E13C08AE0389E300D1124332E2062BC
:102B30000CC08E3221F426FD5FC1206406C08C36A5
:102B400011F4206802C0883641F4F60193FD8591A6
:102B500093FF81916F018111C1CF982F9F7D955473
:102B6000933028F40C5F1F4FFFE3F9830DC08336C9
:102B700031F0833771F0833509F057C021C0F80177
:102B8000808189830E5F1F4F44244394512C54014C
:102B900014C03801F2E06F0E711CF801A080B18002
:102BA00026FF03C0652D70E002C06FEF7FEFC50107
:102BB0002C8736D12C0183012C852F77222E16C02D
:102BC0003801F2E06F0E711CF801A080B18026FF81
:102BD00003C0652D70E002C06FEF7FEFC5012C8749
:102BE00014D12C012C852068222E830123FC19C0CE
:102BF000832D90E048165906A0F4B70180E290E0DA
:102C00001AD13A94F5CFF50127FC859127FE8191E1
:102C10005F01B70190E00FD131103A94F1E04F1A03
:102C200051084114510479F7DEC0843611F0893619
:102C300031F5F80127FF07C060817181828193819E
:102C40000C5F1F4F08C060817181882777FD8095D8
:102C5000982F0E5F1F4F2F76B22E97FF09C09095C9
:102C60008095709561957F4F8F4F9F4F2068B22E52
:102C70002AE030E0A40111D1A82EA81843C085375E
:102C800029F42F7EB22E2AE030E025C0F22FF97F02
:102C9000BF2E8F36C1F018F4883579F0ADC080377B
:102CA00019F0883721F0A8C02F2F2061B22EB4FE72
:102CB0000DC08B2D8460B82E09C024FF0AC09F2F41
:102CC0009660B92E06C028E030E005C020E130E073
:102CD00002C020E132E0F801B7FE07C060817181D7
:102CE000828193810C5F1F4F06C06081718180E0FB
:102CF00090E00E5F1F4FA401D0D0A82EA818FB2D86
:102D0000FF77BF2EB6FE0BC02B2D2E7FA51450F4DF
:102D1000B4FE0AC0B2FC08C02B2D2E7E05C07A2C52
:102D20002B2D03C07A2C01C0752C24FF0DC0FE0191
:102D3000EA0DF11D8081803311F4297E09C022FF44
:102D400006C07394739404C0822F867809F073943C
:102D500023FD12C020FF06C05A2C731418F4530C24
:102D60005718732C731460F4B70180E290E02C873D
:102D700062D073942C85F6CF731410F4371801C009
:102D8000312C24FF11C0B70180E390E02C8753D091
:102D90002C8522FF16C021FF03C088E590E002C009
:102DA00088E790E0B7010CC0822F867851F021FDB2
:102DB00002C080E201C08BE227FD8DE2B70190E006
:102DC0003AD0A51430F4B70180E390E034D05A949F
:102DD000F8CFAA94F401EA0DF11D8081B70190E0CB
:102DE0002AD0A110F6CF332009F45DCEB70180E2DE
:102DF00090E021D03A94F7CFF7018681978102C005
:102E00008FEF9FEF2C96E2E1C2C0FC01059061506C
:102E100070400110D8F7809590958E0F9F1F0895F0
:102E2000FC016150704001900110D8F78095909599
:102E30008E0F9F1F08950F931F93CF93DF93182F2B
:102E4000092FEB018B8181FD03C08FEF9FEF20C025
:102E500082FF10C04E815F812C813D814217530754
:102E60007CF4E881F9819F012F5F3F4F39832883EC
:102E7000108306C0E885F985812F0995892B29F7EC
:102E80002E813F812F5F3F4F3F832E83812F902FD5
:102E9000DF91CF911F910F910895FA01AA27283051
:102EA00051F1203181F1E8946F936E7F6E5F7F4F17
:102EB0008F4F9F4FAF4FB1E03ED0B4E03CD0670F93
:102EC000781F891F9A1FA11D680F791F8A1F911DE6
:102ED000A11D6A0F711D811D911DA11D20D009F436
:102EE00068943F912AE0269F11243019305D319378
:102EF000DEF6CF010895462F4770405D4193B3E061
:102F00000FD0C9F7F6CF462F4F70405D4A3318F007
:102F1000495D31FD4052419302D0A9F7EACFB4E0B8
:102F2000A6959795879577956795BA95C9F7009770
:102F30006105710508959B01AC010A2E0694579511
:102F4000479537952795BA95C9F7620F731F841F68
:102F5000951FA01D08952F923F924F925F926F92FE
:102F60007F928F929F92AF92BF92CF92DF92EF9219
:102F7000FF920F931F93CF93DF93CDB7DEB7CA1B9A
:102F8000DB0B0FB6F894DEBF0FBECDBF09942A88C5
:102F9000398848885F846E847D848C849B84AA846D
:102FA000B984C884DF80EE80FD800C811B81AA81FA
:102FB000B981CE0FD11D0FB6F894DEBF0FBECDBFC5
:082FC000ED010895F894FFCF24
:102FC8000000F00380000100000004000A00015224
:102FD8006561647920666F7220696E70757400503F
:102FE8006C656173652074797065206E6F77004237
:102FF8006F6F74696E672075702068656C6C6F20E0
:10300800776F726C64005573652053657269616CE3
:10301800204D6F6E005479706520746F2064697359
:10302800706C6179004475726174696F6E3A256CD1
:103038006420636D3A256C640053657269616C2085
:103048007265616479004368616E6765206F662008
:10305800616374696F6E20746F3A25640054454D3E
:103068005020463A2564004B3A256420433A2564AB
:1030780000000000002F069807B305CC05BE050E1A
:10308800060D0A006E616E00696E66006F76660056
:103098002E0000000000350A9807A20A330A340AF5
:1030A800310800000000350A9807220C130B270B83
:1030B800060C00000000E80CBC0C910C990CAC0C40
:0230C800BB0C3F
:00000001FF
